S02B0000433A5C70726F70656465757469636F5C53414D5637785C53414D563731785C6170705C30315F7363A4
S22440000080204120B9084000E50B40006D0C4000810C4000990C4000B50C400000000000FD
S224400020000000000000000000000000510940005109400000000000510940009D0D4000C3
S22440004051094000510940005109400051094000510940005109400051094000510940008B
S224400060510940000000000051094000510940005109400051094000510940005109400005
S22440008051094000510940005109400051094000510940005109400051094000510940004B
S2244000A051094000510940005109400051094000510940005109400051094000510940002B
S2244000C051094000510940005109400051094000510940005109400051094000510940000B
S2244000E05109400051094000510940005109400051094000510940005109400051094000EB
S2244001005109400051094000510940005109400051094000510940000000000000000000FE
S224400120510940005109400051094000510940005109400000000000510940005109400044
S22440014080B400AFBFF34F8FBFF36F8F084B0022C3F85022064A064B5B6943F40033536112
S224400160BFF34F8FBFF36F8FBD465DF8047B704700ED00E080B500AFFFF7E2FF00F0C2F939
S22440018000F0EEF900F034FAFCE700BF80B483B000AF374B4FF4A0621A60364B1B6A7B604B
S2244001A07A68354B13437B60324A7B681362334B5B6903F08003002B09D1304B304A1A6067
S2244001C000BF2E4B5B6903F08003002BF9D0294B1B6A03F08073002B09D1264B294A1A6230
S2244001E000BF244B9B6E03F00103002BF9D0214B254A1A6200BF1F4B9B6E03F48033002B3A
S224400200F9D01C4A1B4B1B6B23F0030343F00103136300BF174B9B6E03F00803002BF9D09C
S224400220144B1A4A9A6200BF124B9B6E03F00203002BF9D00F4B40F201121A6300BF0D4B76
S2244002409B6E03F00803002BF9D00A4B4FF481721A6300BF074B9B6E03F00803002BF9D04A
S2244002600B4B0C4A1A600C37BD465DF8047B7047000C0E4000060E400000370410180E40E3
S224400280080000A50908370009083701013F18200000412000A3E11180B400AF514B1B6B68
S2244002A003F00303012B14D0012B02D3022B38D07BE04D4B5B6903F08003002B04D04B4BF8
S2244002C04FF400421A6070E0484B4FF4FA421A606BE0444B1B6A03F08073002B03D0434B2D
S2244002E0434A1A601CE0414B424A1A603D4B1B6A03F07003102B04D0202B08D0002B0ED076
S2244003000EE03A4B1B685B00384A136008E0374B1A6813465B001344344A136000E000BFCB
S22440032043E0304B1B6A03F08073002B03D02F4B2F4A1A601CE02D4B2E4A1A60294B1B6AA5
S22440034003F07003102B04D0202B08D0002B0ED00EE0264B1B685B00244A136008E0234B43
S2244003601A6813465B001344204A136000E000BF1C4B1B6B03F00303022B15D1194B9A6ACE
S2244003801D4B13401B0C0133184A126802FB03F3164A1360134B9B6ADBB2144A1268B2FBEB
S2244003A0F3F3124A1360FFE700BF0E4B1B6B03F07003702B08D10D4B1B68104AA2FB0323ED
S2244003C05B080A4A136009E0064B1B6B03F070031A09064B1B68D340044A1360BD465DF865
S2244003E0047B704700060E4010180E4000004120001BB70000093D000000FF07ABAAAAAA90
S22440040080B483B000AF78607B68184A934204D8174B4FF080621A6023E07B68154A93429C
S22440042003D8134B144A1A601BE07B68134A934203D80F4B124A1A6013E07B68114A934245
S22440044003D80B4B104A1A600BE07B680F4A934204D8074B4FF004221A6002E0044B0C4AC2
S2244004601A600C37BD465DF8047B70477FBA8C01000C0E40FF741903000100047F2FA604E0
S22440048000020004FFE9320600030004BFE6CE070005000480B400AF0C4B20225A600B4BDB
S2244004A04FF47102DA6100BF084B9B6E03F04003002BF9D0054B40F601129A63034B20229B
S2244004C01A60BD465DF8047B704700BF00060E4080B400AF0A4B20225A60094B4FF471027E
S2244004E0DA6100BF064B9B6E03F04003002BF9D0034B40F601129A63BD465DF8047B704717
S22440050000060E4080B400AF0D4B00221A700D4B06221A700C4B06221A700C4B06221A703F
S2244005200B4B00221A700B4B00221A700A4B00221A700A4B00221A70BD465DF8047B7047E2
S224400540790041207A004120760041207B0041207700412074004120780041207500412092
S22440056080B500AF4FF4FA60054900F0FBFB0346002B00D0FEE7034B01221A7080BD00BF61
S224400580F10640007500412080B400AF034BAA221A70BD465DF8047B704700BF750041205F
S2244005A080B582B000AF78607B6802221A727B681A78054B1A707B685B6898477B6800229C
S2244005C01A720837BD4680BD7600412080B483B000AF78607B681A78044B1A707B680122B2
S2244005E01A720C37BD465DF8047B70477A00412080B500AF354B1B78002B03D0334B1B7878
S224400600052B1BD1314B1A78314B1A703148FFF7C7FF2E4B1B78052B02D12F48FFF7C0FFF5
S2244006202B4B1A78294B1B789A4203D1274B06221A704AE0294B02221A7046E0234B1B781F
S224400640012B03D0214B1B78042B1BD11F4B1A781F4B1A702248FFF7A3FF1C4B1B78042B21
S22440066002D12048FFF79CFF194B1A78174B1B789A4203D1154B06221A7026E0174B03222F
S2244006801A7022E0114B1B78022B03D00F4B1B78032B1AD10D4B1A780D4B1A701248FFF778
S2244006A07FFF0A4B1B78032B02D11048FFF778FF074B1A78054B1B789A4203D1034B0622DC
S2244006C01A7002E0054B04221A7080BD7A0041207B00412004004120400041207500412099
S2244006E010004120340041201C0041202800412080B500AF2B4B1B780133DAB2294B1A70FE
S224400700284B1B7803F00103002B14D0264B1B780133DAB2244B1A70234B1B78632B06D95D
S2244007202248FFF753FF204B00221A7038E02048FFF74CFF34E01B4B1B7803F00203002BBA
S22440074014D01C4B1B780133DAB21A4B1A70194B1B78182B06D91848FFF738FF154B00229F
S2244007601A701DE01548FFF731FF19E00D4B1B7803F00303002B13D1114B1B780133DAB28F
S2244007800F4B1A700E4B1B78042B06D90D48FFF71DFF0B4B00221A7002E00B48FFF716FF8D
S2244007A080BD00BF7900412078004120400041200400412074004120340041201000412064
S2244007C077004120280041201C00412080B500AF054B1B68002B02D0034B1B689847024B45
S2244007E000221A6080BD00BF5400412080B500AF054B1B68002B02D0034B1B689847024BB6
S22440080000221A6080BD00BF5800412080B400AFBD465DF8047B704780B500AF054B1B681A
S224400820002B02D0034B1B689847024B00221A6080BD00BF5C00412080B500AF054B1B686D
S224400840002B02D0034B1B689847024B00221A6080BD00BF6000412080B500AF054B1B6849
S224400860002B02D0034B1B689847024B00221A6080BD00BF6400412080B400AFBFF34F8F69
S224400880BFF36F8F0B4A0B4BD3F8903223F00103C2F89032074A074BD3F8943223F001034D
S2244008A0C2F89432BFF34F8FBFF36F8FBD465DF8047B704700ED00E080B582B000AF1A4B5D
S2244008C07B601A4B3B607A683B689A420CD007E03B681A1D3A607A68111D796012681A6083
S2244008E03B68134A9342F3D3124B3B6004E03B681A1D3A6000221A603B680F4A9342F6D392
S2244009000E4B7B600E4A7B6823F07F0393600D4B0D4A5A600B4B0D4A5A60FFF7ADFF00F039
S224400920E1F8FFF727FCFEE7B40D4000000041204C0041204C0041207C00412000004000C2
S22440094000ED00E0000C0E400C08005A0C07005A80B400AFFEE700BF80B582B000AFBFF301
S2244009605F8F11237B604A4800F000F90246494B13433B607868396800F0E6F8464B7B6032
S224400980464800F0F3F80246454B13433B607868396800F0D9F8434B7B603D4800F0E6F8E2
S2244009A002463C4B13433B607868396800F0CCF83D4B7B603D4800F0D9F802463C4B13432F
S2244009C03B607868396800F0BFF83A4B7B603A4800F0CCF80246364B13433B60786839683E
S2244009E000F0B2F8354B7B606FF0604000F0BEF80246334B13433B607868396800F0A4F854
S224400A00304B7B606FF0704000F0B0F802462E4B13433B607868396800F096F82B4B7B6092
S224400A206FF0704000F0A2F80246294B13433B607868396800F088F8264B7B606FF06040EF
S224400A4000F094F80246204B13433B607868396800F07AF8204B7B60204800F087F80246E9
S224400A60174B13433B607868396800F06DF81C4A1B4B5B6A43F4E0235362052000F03AF841
S224400A80BFF34F8FBFF36F8F0837BD4680BD00BFFFFF3F000100000112004000FFFF1F00E5
S224400AA0010023061300002014004020FFFF03000100230315004420FFFF0100160000402A
S224400AC00100011317000060010000031800007001002503190000801A0010A0FFFF0F0020
S224400AE000ED00E080B500AFFFF750FBFFF734FF80BD00BF80B483B000AF7860034A7B687C
S224400B0053600C37BD465DF8047B704790ED00E080B483B000AF7860034A7B6893600C375B
S224400B20BD465DF8047B704790ED00E080B400AF044A044B1B6923F001031361BD465DF89E
S224400B40047B704790ED00E080B483B000AF78603960054A7B68D360034A3B6813610C372A
S224400B60BD465DF8047B704790ED00E080B485B000AF78602023FB600423BB600AE07A68A9
S224400B80FB689A4200D808E0BB680133BB60FB685B00FB60BB681E2BF1D9BB685B00184674
S224400BA01437BD465DF8047B704700BF80B584B000AFF860B9607A6072B6BFF34F8FBFF38B
S224400BC06F8FF868FFF7A4FFFFF7B0FFB8687968FFF7BAFFBFF34F8FBFF36F8F62B61037E5
S224400BE0BD4680BD80B400AFFEE700BF80B483B000AF1C4BDB6A1B4BDB6A1A4BDB6A03F0DF
S224400C008043002B1BD0174B9A6A174B1340002B05D0144B9B6A7B607B681B0C7B60114B1B
S224400C209B6A03F47F43002B09D00E4B9B6A7B607B681B0A7B607B6803F08003002B094BB9
S224400C409B6ADBB2002B02D0064B9B6A7B60BFF36F8FBFF35F8F01BE0C37BD465DF8047B66
S224400C60704700BF00ED00E00000FFFF80B500AFBFF36F8FBFF35F8FFFF7B8FF80BD00BF11
S224400C8080B400AFBFF36F8FBFF35F8F01BEBD465DF8047B704700BF80B400AF00BF00BF6F
S224400CA0BFF36F8FBFF35F8F01BEBD465DF8047B704700BF80B400AFBFF36F8FBFF35F8F60
S224400CC001BEBD465DF8047B704700BF80B483B000AF03463960FB7197F90730002B0BDA88
S224400CE00D49FB7903F00F03043B3A68D2B25201D2B20B441A7609E0084997F907303A6822
S224400D00D2B25201D2B20B4483F800230C37BD465DF8047B704700BF00ED00E000E100E028
S224400D2080B582B000AF78607B68013BB3F1807F01D301230FE00A4A7B68013B53604FF072
S224400D40FF300721FFF7C2FF054B00229A60044B07221A60002318460837BD4680BD00BF23
S224400D6010E000E080B582B000AF78603960094A3B681360084B1A687B68B2FBF3F31846C5
S224400D80FFF7CEFF0346DBB25BB218460837BD4680BD00BF700041200000412080B500AFB6
S218400DA0034B1B68002B02D0014B1B68984780BD7000412070
S224400DB400093D0000000000CD0740000005000001000000ED074000000400000200000040
S224400DD40D0840000004000003000000190840000003000004000000390840000002000073
S210400DF405000000590840000001000007
S804400000BB
