:020000040040BA
:10000000582B442039274000352740003527400031
:10001000352740003527400035274000000000000C
:100020000000000000000000000000003527400034
:1000300035274000000000003527400035274000EC
:100040003527400035274000352740003527400040
:100050003527400035274000352740003527400030
:100060003527400000000000F12440000525400035
:10007000192540003527400035274000352740002E
:100080002D25400041254000352740003527400000
:1000900035274000352740003527400035274000F0
:1000A00035274000352740003527400035274000E0
:1000B00035274000352740003527400035274000D0
:1000C00035274000352740003527400035274000C0
:1000D00035274000352740003527400035274000B0
:1000E00035274000352740003527400035274000A0
:1000F0003527400035274000352740003527400090
:10010000352740003527400035274000352740007F
:1001100035274000352740000000000000000000A7
:10012000352740003527400035274000352740005F
:10013000352740003527400035274000352740004F
:10014000352740003527400035274000352740003F
:100150003527400000000000000000000000000003
:10016000000000000000000010B5054C237833B9F2
:10017000044B13B10448AFF300800123237010BD7A
:10018000C809402000000000FC1541000C4B43B1A1
:100190000C480D4910B5AFF300800C48036823B933
:1001A00010BD0A48036833B97047094B002BF7D0DC
:1001B000BDE810401847064B002BF5D0184700BF8C
:1001C00000000000FC154100CC094020FC15410056
:1001D000000000004B1C012B98BF70472DE9F00375
:1001E000911C9B08B1F80480B1F802900A8831F89C
:1001F00002CC8044814402448444D9F80070D8F889
:1002000000601568DCF80040C9F80060C8F80070AC
:10021000CCF800501460D9F80470D8F80460556820
:10022000DCF80440C9F80460C8F80470CCF8045045
:1002300054600831013BD5D1BDE8F00370474B1C39
:10024000012B98BF70472DE9F003911C9B08B1F872
:100250000480B1F802900A8831F802CC00EB58080B
:1002600000EB590900EB520200EB5C0CD9F800706E
:10027000D8F800601568DCF80040C9F80060C8F8DC
:100280000070CCF8005014600831013BDFD1BDE8AC
:10029000F0037047F8B52DED028B06460846B6F818
:1002A00000C001EB8C0772684FEA5C015FEADC0C6E
:1002B00000F0AC808B0000F110051033C41802F17F
:1002C000100E07F110023B4455ED045A55ED036A38
:1002D00015ED021A55ED011A12ED040A52ED030A4A
:1002E00012ED023A52ED013A14ED042A54ED032ABC
:1002F00054ED027A14ED015A13ED046A13ED037AFA
:1003000013ED024A53ED014A35EE808A05ED048A69
:1003100036EEA08A05ED038A31EE038A05ED028AE6
:1003200031EEA38A05ED018A75EEC05A76EEE06AD9
:1003300031EE433A71EEE33A72EE061A44ED041AD6
:1003400072EE871A44ED031A77EE841A44ED021A0E
:1003500075EE241A44ED011A36EE426A37EE627ADF
:1003600074EE672A74EEC57A1EED045A5EED034AF8
:1003700025EE854A26EEA42A34EE024A02ED044A0E
:1003800066EE856A65EEA45A76EEE56A42ED036A8A
:1003900066EE246A67EE055A76EEE56A43ED046A76
:1003A00027EE247A26EE056A37EE067A03ED037A05
:1003B0005EED026A1EED016A23EE265A23EE867A6E
:1003C00035EE075A02ED025A23EEA67A63EE065A7C
:1003D00037EE657A02ED017A62EE865A27EEA67A4A
:1003E00075EEC75A43ED025A67EE867A22EEA67A78
:1003F00077EE877A43ED017A103510340EF1100E46
:1004000010321033BCF1010C7FF45EAF8CB20223CA
:1004100072682146044DA847022372682146384677
:10042000A847BDEC028BF8BDE50940002DE9F04F6F
:100430002DED068B8FB00C460A90018849088B0081
:10044000019422461A4415461A4414460C92D018B8
:100450000646101F371F0A9A5268490809910199E8
:100460008E4691ED007AD4ED007A37EE276A37EEAA
:10047000677ADEED017A2146D4ED015A77EEA56A5E
:1004800077EEE57AD5ED013A96ED014A2C46D5EDA9
:10049000004A029696ED005A76EE245A75EE855A79
:1004A000764615EE90EA46F808EB04962546D4ED1C
:1004B000015A76EEA55A029E96ED013A75EE835AE0
:1004C000019EC6ED015A77EE235A75EEC45AAB462B
:1004D00015EE90EA4BF808EB77EEE45A75EE855A84
:1004E0000895C5ED015A36EE646A36EE456A0C464B
:1004F0000D4616EE10EA45F808EB069576EEE36A2F
:1005000076EEC46AC1ED016A37EE637A37EE047A9B
:10051000029DAA4617EE10EA4AF808EB77EEA47A95
:1005200077EEC57AC5ED017A02F1080ECDF814E038
:1005300002F1100ECDF80CE002F1180ECDF81CE01F
:100540000999023949080B9100F02C81103608995D
:10055000A1F10C05DDF80C80103102F1200C1034F3
:1005600002F1300E029A1032083B3B44DDF82C9029
:10057000CDF834A056ED025A54ED027A75EEA76A12
:1005800075EEE75A56ED010A54ED017A30EEA75A9E
:1005900070EEE70A11ED016A12ED011A35EE863AA6
:1005A00033EE413A11ED027A52ED027A30EEC70A8B
:1005B00030EE270A76EEC73A73EEE73A35EE468A12
:1005C00038EE418A35EEC66A36EE011A70EE870AB9
:1005D00070EEE70A36EE877A77EE277A46ED027AF2
:1005E00051ED017A35EE275A52ED017A35EE275A50
:1005F00006ED015A95ED016A57ED017A76EE278AEC
:1006000036EE676AD5ED026AD7ED005A76EEA51A86
:1006100076EEE56A90ED002AD3ED022A32EE62AA68
:1006200036EE0A4A10ED019AD3ED019A76EEC94AE8
:1006300074EEA94A78EEC95A75EEE95A31EEC25AFB
:1006400035EE625A3AEE466A39EEC99A79EE666A32
:1006500031EE822A72EE222AC5ED022A50ED017A8D
:1006600078EEA78AD3ED017A78EEA78AC5ED018AE4
:1006700058ED027A18ED017A23EE272A60EE072A58
:1006800072EE222A41ED022A20EE270A23EE073AD3
:1006900030EE433A01ED013A64EE872A24EE273A20
:1006A00032EEC33A13EE10AA40F808A924EE077AF6
:1006B00064EEA77A77EE277AC0ED017A5CED047AD2
:1006C0001CED037A23EEA74A68EE074A74EE244A2B
:1006D00044ED024A28EE278A63EE873A78EE633AC1
:1006E00044ED013A25EE674A65EE874A74EE644AA6
:1006F00014EE90AA47F808A925EE077A65EEA77AC6
:1007000077EE677AC7ED017A5EED067A1EED057A1F
:1007100021EE275A60EE875A75EE255A42ED025AAD
:1007200060EEA70A21EE071A30EEC11A02ED011A97
:1007300026EE875A66EE275A75EE655AC3ED025AC1
:1007400026EE077A66EEA77A77EE277AC3ED017A6E
:100750000836083D08F1080808310CF1100C08347F
:100760000EF1180E0832083BB9F101097FF402AF0F
:10077000DDF834A00B99CB00049A1A440492059A30
:100780001A4405929B44039A104600EB011203920F
:10079000069A1A44069201EB4101079A02EBC10244
:1007A00007929A44049A92ED006A0698D0ED007A76
:1007B00036EE274A36EE676A1346D2ED017A90ED9F
:1007C000017A77EE874A77EEC77A9BED012ADAED58
:1007D000012A36EE025A35EE625A9BED003ADAED06
:1007E000003A77EEC36A76EEA36A74EE435A75EE6A
:1007F000E35A34EEC27A37EE627A36EE426A36EE69
:10080000226A77EE837A77EEE37A34EE034A34EEA7
:10081000234A83ED004A9BED014A74EE844A9AED27
:10082000014A74EE844AC3ED014A059AD2ED003ABA
:1008300092ED014A65EE234A26EE843A74EE834A2D
:10084000CBED004A66EEA36A25EE045A76EEC56A41
:10085000CBED016A039AD2ED004A92ED015A65EEA2
:10086000A46A27EE054A76EE846AC0ED006A27EE98
:10087000247A65EE855A37EE657A80ED017A079A1B
:10088000D2ED005AD2ED016A26EE257A27EEA65A5D
:1008900037EE057A8AED007A67EEA57A26EE266AAB
:1008A00077EEC67ACAED017ABDF8244004230A9E89
:1008B0007268214601980B4DA847042372682146AF
:1008C0000898A8470423726821460C98A847042377
:1008D000726821460298A8470FB0BDEC068BBDE8B0
:1008E000F08F00BFE50940002DE9F04707460C46B0
:1008F0009046994605882E46012A0BD0B5F5807F93
:100900003CD025D8202D39D014D9402D2ED0802D83
:1009100012D015E0002D3CD001F10C03002253ED64
:10092000027AF1EE677A43ED027A01320833964299
:10093000F5D1E3E7102D03D121463846254B9847E2
:10094000B9F1000F1FD1B8F1010F24D0BDE8F08735
:10095000B5F5806FF0D006D9B5F5006F0ED0B5F5BE
:10096000805F03D0ECE7B5F5007FE9D101237A6819
:1009700029462046DFF868A0D047E1E721463846FF
:10098000154B9847DCE7BA68B9892046134B98475E
:10099000D9E7002BF7D107EE905AF8EE677AF7EE19
:1009A000006A86EEA77A002DD0D004F1080100235A
:1009B00051ED027A67EE877A41ED027A51ED017AC4
:1009C00067EEC77A41ED017A013308319E42EFD1DB
:1009D000BDE8F087950240002D044000D40140009E
:1009E000E50940002DE9F04F2DED108B9FB01B90D5
:1009F0001D921C93049103919FEDC32A8CE1CDF8C5
:100A000008E0019D95ED004A51ED017A74EE273A18
:100A100034EE674AD6ED006AD3ED007A76EEA75A37
:100A200076EEE72A92ED007A02EB0B09D9ED007A17
:100A300037EE275A77EE674A50ED016A03EB0A0C4E
:100A4000DCED007A36EEA76A36EEE73A33EEC5DA29
:100A500033EE857A75EEC6DA75EE866A77EE267A1B
:100A6000C5ED007A37EE667A95ED015AD1ED007A40
:100A700075EE27FA35EE675AD6ED013AD3ED017AD5
:100A800033EEA7FA73EEE73AD2ED015A01EB0A080A
:100A9000D8ED007A75EEA76A75EEE75A90ED006A18
:100AA00000EB0B0EDEED007A76EE27EA36EE676A93
:100AB0003FEEE6EA7FEEA66A7FEE6E7A7FEE2EEAE2
:100AC0003DEE27FA7DEE677A36EEAEDA85ED01DA95
:100AD00076EEEE6A3EEE6DDA3DEE8EEA6BEE07EAFA
:100AE00060EE26DA7EEEADDA41ED01DA6BEE26EA53
:100AF00060EE07DA7EEEEDDAC1ED00DA6CEE0F6A39
:100B000028EE8D7A36EE877A82ED007A2CEE0DDAB9
:100B100068EE8F6A7DEE666AC2ED016A6AEE276A48
:100B200021EE0E7A36EE877A89ED007A2AEE0E7A79
:100B300061EE277A77EE677AC8ED007A72EEC37AB3
:100B400067EE827A72EE836A66EE826A33EEC63AA6
:100B500023EE023A33EE866A26EE026A34EE67DA54
:100B600034EE274A74EEE62A34EEA67A75EE433A5E
:100B700035EE035A35EEC63A75EE867A74EE274A9C
:100B800074EE677A7DEE036A3DEE434A75EE475A8E
:100B900037EE055A33EEE26A32EEA37A2CEEA43A2F
:100BA00069EE253A73EE233AC6ED003A6CEEA55A8B
:100BB00069EE244A75EEE45AC6ED015A69EEA74A79
:100BC00061EE855A74EEA55ACCED005A29EE855A8D
:100BD00061EEA75A35EE655A8EED005A6AEEA65AB6
:100BE00060EE867A75EEA77AC3ED007A2AEE866A01
:100BF00060EEA66A76EE666AC3ED016A6BEE846A01
:100C000068EE077A76EEA77A40ED017A2BEE877AC6
:100C100068EE047A77EE677AC0ED007A039F029D52
:100C200007EB050E019D25440195264423442244EB
:100C300021442044049F029DBD42FFF4E0AE069B88
:100C400001330693079A14990A440792089A159952
:100C50000A440892099A16990A4409920A9A17991D
:100C60000A440A920B9A18990A440B920C9A199901
:100C70000A440C92059A1A990A4405920D9A083270
:100C80000D920E9A08320E920F9A08320F92109A15
:100C900008321092119A08321192129A0832129266
:100CA000139A9A4232D0079AD2ED00CA089991ED70
:100CB00000CA0998D0ED00BA0A9D95ED00BA0B9EC6
:100CC000D6ED00AA0C9F97ED00AA059BD3ED009AE4
:100CD00092ED019AD1ED018A90ED018A95ED010A1C
:100CE000D6ED010A97ED011A059BD3ED011A039B7E
:100CF000069A9F1812981199109A0F9B0E9E0D9D9F
:100D0000029701957DE600BFF304353F1C9BDB0095
:100D10009BB21C93069B0393039AD3081D4613931F
:100D2000D4001B9EB6464FEA430903EB0902134465
:100D300006EBC30728464FEAC508314641442B4419
:100D400006EBC305019505464FEA001A01EB0800C2
:100D500002902B4406EBC30006EBC2022B4406EBC9
:100D6000C30304334FF0000CDDF810B0CDF814903D
:100D7000DDF80C90019E029D9EED007AD7ED007A81
:100D800077EE274A37EE673AD1ED003A96ED007AD2
:100D900073EE877A73EEC73AD5ED005AD0ED006A4C
:100DA00035EEA67A35EEE64A92ED005A13ED016A69
:100DB00075EE066A35EE465A34EEC70A34EE877A87
:100DC00037EEE68A77EEA67A77EE276ACEED006AEE
:100DD00077EE677AC7ED007A9EED016AD7ED017A6A
:100DE00036EE271A76EE674A91ED016AD6ED017A62
:100DF00036EE277A36EE676AD5ED016AD0ED017AD4
:100E000076EEA71A76EEE77AD2ED015AD3ED006AB4
:100E100075EEA62A75EEE66A71EE610A71EE215A48
:100E200077EE621A37EE227A75EE872ACEED012A26
:100E300035EEC77A87ED017A30EE217A85ED007ABA
:100E400070EE611AC0ED001A30EEC87A85ED017AB5
:100E500078EE200AC0ED010A33EEC57A27EE027A59
:100E600073EE855A65EE825A36EE665A25EE025AC0
:100E700076EE266A66EE826A73EE472A33EE077ACA
:100E800074EE653A74EE255A34EEC54A34EE856A3E
:100E900037EEE65A77EEA67A77EE276AC1ED006A5A
:100EA00077EE677A43ED017A72EE857AC6ED007AC5
:100EB00032EEC55A82ED005A76EE657AC1ED017ABE
:100EC00035EE866A83ED006A74EE637AC6ED017AC8
:100ED00033EE844A82ED014ACC44A644274421449F
:100EE00026442544204422442344E3453FF644AFAE
:100EF000DDF81490139E072E54D91C9BDA0011467E
:100F000014921D98024641180791190115910A443F
:100F10000892194603EB4303DA001546169202467F
:100F20002A4409920A460B44D9000D4617910146FE
:100F300029440A9111461344DA00154618920246D4
:100F40002A440B920A460B44D9000D4619910146DA
:100F500029440C911344DB001A93C31805931B9D7D
:100F60002B4608330D9308F10803EB180E9309F193
:100F70000103324633441A443146114405EBC101A2
:100F80000F910AF108016918109105EBC2020432B1
:100F9000119205EBC303043312934FEA461B01235E
:100FA000069380E61FB0BDEC108BBDE8F08F00BF4C
:100FB0002DE9F84F2DED028B0746894690465FEAF2
:100FC000920B00F0928000F1200601F11005DA4644
:100FD0009FED5E8A1EE017EE900A5D4B984730E069
:100FE00005ED048A2FE017EE900A594B984740E030
:100FF00005ED038A3FE017EE900A554B984750E005
:1010000005ED028A4FE045ED018A20361035BAF130
:10101000010A66D0344656ED087A16ED077A67EE77
:10102000A77A27EE077A77EE877AF5EEC07AF1EEA7
:1010300010FAD5DBF1EEE78AF5EE407AF1EE10FA20
:10104000C9D445ED048A54ED067A14ED057A67EEAD
:10105000A77A27EE077A77EE877AF5EEC07AF1EE77
:1010600010FAC5DBF1EEE78AF5EE407AF1EE10FA00
:10107000B9D445ED038A54ED047A14ED037A67EE92
:10108000A77A27EE077A77EE877AF5EEC07AF1EE47
:1010900010FAB5DBF1EEE78AF5EE407AF1EE10FAE0
:1010A000A9D445ED028A54ED027A14ED017A67EE77
:1010B000A77A27EE077A77EE877AF5EEC07AF1EE17
:1010C00010FA0BDBF1EEE78AF5EE407AF1EE10FA5A
:1010D00099D517EE900A1E4B984794E705ED018AC3
:1010E00093E707EB4B1709EB0B1918F0030828D00F
:1010F00008370024164D05E009ED018A0837B8F1DC
:1011000001081ED057ED027A17ED017A67EEA77A33
:1011100027EE077A77EE877A09F10409F5EEC07AAF
:10112000F1EE10FA0ADBB1EEE78AF5EE407AF1EE65
:1011300010FAE1D517EE900AA847DDE749F8044C0C
:10114000DCE7BDEC028BBDE8F88F00BF00000000BB
:10115000E92940002DE9F04100F1040CD0ED007ABE
:101160004C1E5FEA94083DD01430464604254FF0EB
:10117000000E03E010300435013E2CD0074650ED40
:10118000046A10ED037AF4EEE76AF1EE10FA03DD7B
:10119000A5F1030EF0EE667A57ED026AF4EEC77A17
:1011A000F1EE10FA03D5A5F1020EF0EE477A17ED35
:1011B000017AF4EEE67AF1EE10FA03D505F1FF3E7E
:1011C000F0EE667AF4EEC77AF1EE10FAD2D5AE46BA
:1011D000F0EE477ACEE70CEB081C14F0030011D0B8
:1011E000081A04E0C646F8E7013081420AD0BCEC98
:1011F000017AB4EEE77AF1EE10FAF5DD8646F0EE0C
:10120000477AF1E7C2ED007AC3F800E0BDE8F0816B
:101210002DE9F04180B90C469046002A0FDD8F1869
:10122000084E094D306821462B6898470134BC426E
:10123000F8D14046BDE8F0814FF0FF38F9E780462D
:10124000F7E700BF280B4420140B412010B40B011A
:10125000934214D9C9004B0803EBC202B2FBF1F26E
:10126000D3085C1E4FF6FE718C4201D9012017E0B5
:10127000416841F4002141600CE0012010E0590870
:1012800001EBC202B2FBF3F2D3085C1E4FF6FE7113
:101290008C42F2D8120402F4E0221A4302620020C7
:1012A0005DF8044B70470000084BC0F8E4300023A1
:1012B00043604362836288230360242303604FF406
:1012C000807303604FF4002303607047004153555F
:1012D00070B505460C4616460F4B984700220F4B3B
:1012E0001A60A4B13246216828460D4B9847024641
:1012F00078B96368A1680B4321690B43E1680B432C
:1013000006490B6069680B436B60104670BD012293
:10131000FBE70122F9E700BFA9124000E4094020E1
:101320004D12400040230360704710230360704754
:10133000436913F0020F04D0C1F30801C16100201A
:10134000704701207047436913F0010F05D083698E
:10135000C3F308030B6000207047012070470000B2
:10136000F0B5154B0022C3F88420BFF34F8FD3F89C
:101370008070C7F34E35C7F3C9076E014FEA877C0B
:1013800043F6E07E1C4606EA0E0062463B4640EA13
:101390000201C4F87412013B02F14042B3F1FF3F75
:1013A000F5D1013D203EB5F1FF3FECD1BFF34F8FAA
:1013B000BFF36F8FF0BD00BF00ED00E0F0B583B06C
:1013C00005460C46002301932A4B984213D02A4B22
:1013D000984218D0294B98421DD0294B9D4222D0CB
:1013E000284B9D4227D0284B9D422ED0274B9D4213
:1013F00035D003B0F0BD1F46254E21463846B047D4
:101400000028FAD1E9E71F46214E21463846B04769
:101410000028FAD1E4E71F461D4E21463846B04762
:101420000028FAD1DFE71F46194E21463846B0475B
:101430000028FAD1DAE71E46164D01A93046A84722
:101440000028FAD1019B2370D3E71E46114D01A954
:101450003046A8470028FAD1019B2370C9E71E46F1
:101460000C4D01A93046A8470028FAD1019B2370F2
:10147000BFE700BF00080E40000A0E40001A0E40F1
:10148000001C0E40004002400080024000C00240AC
:10149000D71F40004713400070B50C462A4B9842B6
:1014A00013D02A4B984219D0294B98421FD0294B70
:1014B000984225D0284B98422BD0284B984231D0C7
:1014C000274B984237D0002070BD1E46254D21463F
:1014D0003046A8470028FAD1012070BD1E46214D94
:1014E00021463046A8470028FAD1012070BD1E468B
:1014F0001C4D21463046A8470028FAD1012070BD76
:101500001E46184D21463046A8470028FAD1012032
:1015100070BD1E46144D21463046A8470028FAD11A
:10152000012070BD1E46104D21463046A8470028B8
:10153000FAD1012070BD1E460B4D21463046A8470A
:101540000028FAD1012070BD00080E40000A0E40AC
:10155000001A0E40001C0E40004002400080024075
:1015600000C00240C51F4000311340002DE9F04F7C
:10157000A1B0344B9847344B9847EFF31083B3FA3C
:1015800083F35B09029372B6BFF35F8F00222F4B88
:101590001A7002992E4A136843F470031360BFF364
:1015A0004F8FBFF36F8F29B10122284B1A70BFF301
:1015B0005F8F62B60E20274EB047274D274B1D6028
:1015C000274A284B1A60284A284B1A604FF4E13307
:1015D0001893C02319934FF400631A9300241B94AB
:1015E0001C940E20B047224A18A92846214B984740
:1015F0002846214B98472846204B9847204E336871
:10160000214698681F4DA847336821465868A84767
:101610001D4B984718B11D481D4B9847FEE71D48C4
:101620001B4B98474FF6FF7100201B4B984700203B
:101630001A4B984748F60413984233D01848144B75
:101640009847FEE7292040009D20400010004020E0
:1016500088ED00E07526400000800240280B442001
:1016600099144000240B4420BD134000140B41206A
:10167000000E2707D1124000251340002B13400015
:101680001C0040205D3A4000011C4000C81341008E
:1016900099394000EC134100891B4000C51B4000F4
:1016A0000014410008210420B54CA0474721052023
:1016B000A047B44D2846B44EB04743210520A0476B
:1016C00009210420A04703210C20A04703210E205C
:1016D000A04700212120A04700213D20A047012153
:1016E0006220A04701216820A04700217420A04764
:1016F00040F204717520A0474FF400417620A047C6
:101700004FF4BB517720A04705217420A0472846FD
:10171000B04740F605411520A04700211420A047FE
:1017200044F206011620A04742211920A0470821B3
:101730001A20A0474FF402611B20A0470F2112205E
:10174000A0472846B04710212C20A04710212D206B
:10175000A04711215A20A04733215A20A0470F212A
:101760004320A047F0214420A047884D2846B04799
:1017700077215A20A047FF215A20A047B9213920BC
:10178000A047B9213A20A0472846B0478048814B5E
:1017900098471620DFF86082C0474FF040207E4B0C
:1017A00098470225039500240494059406944FF469
:1017B000E06BCDF824B04FF4803ACDF820A0079428
:1017C0000F2711974FF08009CDF848901394149487
:1017D00015941694179411AA03A94FF040206F4B4B
:1017E000984701230A930B9420230C930D94CDF872
:1017F00040B0CDF83CA00E941897CDF864901A94A0
:101800001B941C941D941E9418AA0AA94FF0402002
:10181000634B98474FF04020624B98474FF0402071
:10182000614B98474FF0FF314FF040205F4B984796
:101830005F48584B98472022214618A85D4B98478F
:101840003A20C0475C4B1B93DFF8B08118AA2146B1
:1018500040465A4B98475A4BDFF8A491C3F804907E
:10186000584A9A60DFF89CA1C3F80CA003F110015C
:101870001960C3F814909A610AF50051D96103F117
:1018800020011961C3F824909A620AF58041D96257
:1018900003F130011962C3F834909A630AF5C04B22
:1018A000C3F83CB01B63C8F86C7023F00303C8F89E
:1018B00068300123C8F80C30C8F85050424B1B93D5
:1018C00018AA012140463D4B9847404BC3F804906D
:1018D000C3F808A03E4ADA6003F110011960C3F8AA
:1018E00014900AF500519961DA6103F12001196140
:1018F000C3F824900AF580419962DA6203F130015D
:101900001962C3F83490C3F838B0DA631B63C8F8BF
:10191000AC7023F00303C8F8A830C8F80C50C8F81E
:1019200090502C4B4FF08062C3F884214FF020017F
:1019300083F83A135A602848164B984721462846A0
:10194000264B984721462846254B98472846254B45
:1019500098474FF04020244B9847244CA047012340
:10196000C8F81C302248B0474FF04020214B984720
:10197000A047C8F81C5057464FF6FE74544443E045
:10198000891B400035160300010040201EBC3D00AD
:101990001414410099394000791C40001D1D40007D
:1019A000A91C4000A11C4000931C4000911D400058
:1019B00028144100C139400001280421EB1F4000D8
:1019C000E80941202040004011480120280A412018
:1019D0002440004000E100E03C144100C9264000E2
:1019E000F5264000212740008D1C40006113400077
:1019F0005834B900991C400075264000008007400B
:101A00000010000BE8094020104E12E0104D009528
:101A100033464FF480420F490F48DFF84C80C047EF
:101A200028680E4B984702460B4631680C480D4D0E
:101A3000A847BB1E084A33F8021F07EE901AF8EEBB
:101A4000677AE2EC017A9C42F5D1DFE7180B42207D
:101A50001C0B4420180B41201C0B4220FD2D400084
:101A600050144100993940006D1A40002DE9F041B1
:101A700005460E4614461F4607EE902AF8EE677A92
:101A8000234BC3ED007AB2F5007F0DD007D9B2F534
:101A9000806F3AD0B2F5006F2BD11E4805E0B2F549
:101AA000807F26D11C4800E01C481D4B1B781D4A36
:101AB00012782946DFF87C80C04761002A4600235F
:101AC0001348D2ED006A90ED007AC6EE877AE2EC18
:101AD000017A01338B42F4D3224631462846124B19
:101AE00098473B46069A21463046104CA047BDE831
:101AF000F0810B4B1B780B4A127829460020DFF847
:101B00003480C0476100D9D1E6E70948CDE700BF7E
:101B1000200B442098134100A8134100B813410042
:101B20000C004020680A4120B10F400055114000D0
:101B300088134100E90840000138022815D82DE932
:101B4000F0410E4614469AB10D46DFF838800C4F2E
:101B5000D8F8000015F8011B3B68984700280ADBFD
:101B6000A81B013CF4D1BDE8F0814FF0FF30704775
:101B70001046BDE8F0814FF0FF30BDE8F08100BFB6
:101B8000240B4420280B442000B587B00B0A8DF8A5
:101B900014308DF815108DF800000123019305AB6A
:101BA0000293022303931A238DF8103069460348E9
:101BB000034B984707B05DF804FB00BF008001406D
:101BC000251F400000B587B08DF800000123019368
:101BD00005AB0293022303931A238DF81030694654
:101BE0000548064B98479DF814009DF8153043EAC8
:101BF000002007B05DF804FB00800140791E400022
:101C000010B584B04FF000512120154CA0474FF083
:101C100000512020A0474FF080517A20A0474FF07C
:101C200000611620A0474FF080517820A0474FF068
:101C3000C0510A20A0474FF080511220A047094B05
:101C40000293094B019300238DF80D301320074BAD
:101C5000984701A90648074B984704B010BD00BF3C
:101C600071234000801A0600000E270775264000E9
:101C700000800140451E40004FF4004303600023F4
:101C80004360036143618361C36170470123036063
:101C900070470223036070474FF4807303607047FE
:101CA0004FF400730360704730B4002930D00C4605
:101CB0000169236865682B430B43A1680B43E16806
:101CC0000B43A1690B43216943EA0163616909047C
:101CD00001F47F010B430361EAB141695368546920
:101CE0002343946923430B43116801F01F010B4305
:101CF000116943EA01739168090201F470610B43B1
:101D0000D268120402F470221343436130BC70475E
:101D100000230361E0E700234361F7E730B40029C3
:101D200030D00C468169236865682B430B43A1685A
:101D30000B43E1680B43A1690B43216943EA01634B
:101D40006169090401F47F010B438361EAB1C16950
:101D5000536854692343946923430B43116801F08A
:101D60001F010B43116943EA01739168090201F4F1
:101D700070610B43D268120402F470221343C361F2
:101D800030BC704700238361E0E70023C361F7E7BD
:101D900081647047284B99424BD8A3F57A539942F6
:101DA0002DD910B4254CA4FB0234A40B033C244BC6
:101DB0000B449B00B2FBF3F2033AFF2C1DD9002128
:101DC00001316408FF2C01D90629F9D9FF2A07D966
:101DD000062905D801315208FF2A01D90629F9D967
:101DE00013029BB2090401F4E0210B43E4B2234344
:101DF000036100205DF8044B70470021E6E74900CD
:101E0000B2FBF1F2033AFF2A11D900230133520841
:101E1000FF2A01D9062BF9D9110289B21B0403F458
:101E2000E0230B43D2B21A43026100207047002323
:101E3000F2E70120704700BF801A0600F11976050D
:101E40000012FD3F08B54FF0FF328262026A802225
:101E50000260026B082202602022026004220260FB
:101E60000A684968034B9847012814BF00200120E5
:101E700008BD00BF951D4000CA68002A4CD070B450
:101E80008C68002646604B681B0203F4407343F4E1
:101E900080530D7C2D0405F4FE052B434360C66082
:101EA0004D685DB10B78012D02DD4E7846EA0323C3
:101EB000022D04DD897841EA032300E00023C3609A
:101EC00001230360022512E0056013F0020F1BD00E
:101ED000036B2370036A13F0010FFBD0036A002029
:101EE00070BC7047036B04F8013B013AF2D0036AFF
:101EF00013F4807F14D147F23051012AE4D013F05B
:101F0000020FEFD1002AE5D0036A13F4807F05D1D8
:101F10000139F2D10920E3E7012070470520DFE70E
:101F20000520DDE7CB68002B43D070B48C68002619
:101F300046600A7C120402F4FE024D682D0205F48C
:101F400040752A434260C6604D685DB10A78012D34
:101F500002DD4E7846EA0222022D04DD897841EA4C
:101F6000022200E00022C26004E014F8012B426368
:101F7000013B0FD0026A12F4807F1ED112F0040FD1
:101F8000F3D1026A12F4807F15D112F0040FECD164
:101F9000002BF6D1036A13F4807F11D113F0040FE4
:101FA000F8D002230360036A13F0010FFBD0002076
:101FB00004E001207047052000E0052070BC704758
:101FC0000520FBE7436913F0020F02D0C161002036
:101FD000704701207047436913F0010F03D08369F4
:101FE0000B70002070470120704700EB8111CB6D12
:101FF00053680B6693684B66136823F07F430B6747
:102000001369C3F30B034B675369CB67936923F0E1
:102010007F43C1F88030D36923F07F43C1F8843017
:10202000D3688B677047000010B51048104B984775
:102030003E2100200F4B98470F4CA0470028FCD0B2
:102040000E4B98470E4A0F4B9A620F4CA047002840
:10205000FCD002200D4B984700200D4B98470D4BAC
:1020600098470D48024B984710BD00BF00A3E111EF
:102070000D294000F125400045264000552640002E
:10208000013F132000060E40652640005525400004
:102090008D25400001284000001C4E0EF8B54FF47D
:1020A00000426D4B5A60BFF34F8FBFF36F8F6B4B86
:1020B0000021C3F85012BFF34F8FBFF36F8F5A69DF
:1020C00042F400325A61BFF34F8FBFF36F8FC3F8F2
:1020D0008410BFF34F8FD3F88070C7F34E35C7F32A
:1020E000C9076E014FEA877C43F6E07E1C4606EA8C
:1020F0000E0062463B4640EA0201C4F86012013B12
:1021000002F14042B3F1FF3FF5D1013D203EB5F170
:10211000FF3FECD1BFF34F8F504B5A6942F48032EE
:102120005A61BFF34F8FBFF36F8F4D4A4D495160D6
:10213000A1F580715160BFF34F8FBFF36F8FD3F85C
:10214000902222F00102C3F89022D3F8942222F0C8
:102150000102C3F89422BFF34F8FBFF36F8F0A20A1
:10216000414CA0470B20A0470C20A0471020A047BF
:102170001120A0473D4B4FF400021A61C3F8A02084
:102180001A633B494FF400720A61C1F8A0200A6348
:102190005A61C3F8A0205A66C3F890205A651A62A3
:1021A000C3F88420196F21F400711967596F21F465
:1021B00000715967C3F8C020C3F8D420C3F8B02019
:1021C0004FF400121A66C3F890205A655A62C3F899
:1021D0008020196F21F400111967596F21F4001143
:1021E00059675A602349D1F8142142F01002C1F80E
:1021F000142101F5B22110220A66C1F890204A6527
:102200004A62C1F88020086F10430867486F104386
:1022100048674A6008211966C3F8901059655962E9
:10222000C3F88010186F20F008001867586F20F06E
:102230000800586759601A66C3F890205A655A62B8
:10224000C3F88020196F21F010011967596F21F030
:10225000100159675A60F8BD50180E4000ED00E0BB
:10226000000C0E400C08005A75264000000E0E406F
:1022700000120E40008008404264B1F1C05F3AD0C5
:1022800013D8B1F1006F25D0B1F1805F0AD1036F8F
:1022900013430367436F416F0B4023EA0203436715
:1022A000426070470029FBD17047B1F1205F21D017
:1022B00009D8B1F1005FF3D1036F13430367436F94
:1022C00013434367ECE7B1F1405F13D0B1F1605FB6
:1022D00010D0E5E710B4016F046FD34321401C46D2
:1022E00019400167436F416F0B40234043674260D1
:1022F0005DF8044B7047036F016F0B4023EA020344
:102300000367436F13434367CAE7416412F0010F49
:102310000DD1016612F00A0F0BD0016212F0020F0C
:1023200009D112F0080F08D0C0F8841005E041660A
:10233000F0E74162F2E7C0F8801041610160704748
:1023400010B4019C41644CB901664BB101654AB9B6
:102350004163016101605DF8044B70474166F4E739
:102360004165F4E70163F4E7C06C7047806C704727
:1023700070B582B00D46464C04EB5014640201F077
:10238000F043B3F1005F59D00AD8B3F1805F2FD08A
:10239000B3F1C05F3FD0B3F1006F16D0002012E060
:1023A000B3F1405F5DD0B3F1605F5AD0B3F1205F0D
:1023B000F4D100F01F0101262A4606FA01F1204659
:1023C000344B9847304602B070BD00F01F00012624
:1023D000864032464FF0006120462F4B984715F05B
:1023E000010F02D126660120EDE766660120EAE7CB
:1023F00000F01F000126864032464FF080512046F3
:10240000254B984715F0010F02D126660120DAE727
:1024100066660120D7E700F01F000126864032469D
:102420004FF0C05120461C4B984715F0010F02D1C8
:1024300026660120C7E766660120C4E700F01F009A
:102440000126864032464FF000512046124B9847F5
:1024500015F0010F02D126660120B4E7666601205F
:10246000B1E705F0605200F01F01012605EA0603FE
:102470000093C5F38003B2F1605F14BF0022012214
:1024800006FA01F12046054CA04730469BE700BF05
:10249000070720000B234000792240004123400021
:1024A0002DE9F041044688460E4B984705462046E4
:1024B0000D4B9847054013D00C4C04F1600603E027
:1024C000B4420DD010345DB120684045F8D1616848
:1024D0002942F5D0E3689847636825EA0305EFE7EA
:1024E000BDE8F081692340006D2340006C0A412063
:1024F00008B50A210148024B984708BD000E0E405E
:10250000A124400008B50B210148024B984708BDA3
:1025100000100E40A124400008B50C210148024BD8
:10252000984708BD00120E40A124400008B51021B4
:102530000148024B984708BD00140E40A1244000FA
:1025400008B511210148024B984708BD00160E40FE
:10255000A1244000032811D0042812D002280CBF67
:102560004FF480710021084A136B23F440730B432E
:102570001363936E13F0080FFBD070474FF4407154
:10258000F1E74FF40071EEE700060E40174A136BB7
:1025900023F0700318431063936E13F0080F0AD1F1
:1025A0004FF4006311498A6E12F0080F03D1013B0A
:1025B000F9D1012070470D4A136B23F0030343F058
:1025C00002031363936E13F0080F0AD14FF40063F4
:1025D00006498A6E12F0080F05D1013BF9D101209E
:1025E0007047002070470020704700BF00060E4073
:1025F000A0B90E48036A090289B20D4A1A400D4B70
:102600001343194301620246936E13F0010FFBD08E
:10261000064A116A084B0B431362704703490B6A61
:10262000064A1A40064B13430B62704700060E40E1
:10263000FCFFC8FF0100370000003701FCFFC8FEA7
:1026400002003701024B986E00F48030704700BFE3
:1026500000060E404FF00052014B9A62704700BFD7
:1026600000060E40024B986E00F00200704700BF5B
:1026700000060E403F281ED81F280CD8114B9A691F
:1026800001238340934318D0012303FA00F00D4B3C
:1026900018610020704720380A4BD3F80821012325
:1026A000834093430BD0012303FA00F0054BC3F89A
:1026B0000001002070470120704700207047002073
:1026C000704700BF00060E40094A02EB8002136CFF
:1026D00023F47F63194311644FF4807303FA00F00D
:1026E000034B1A68024202D09A6E1042F9D070472A
:1026F00000060E40094A02EB8002136C23F0070328
:10270000194311644FF4807303FA00F0034B1A6805
:10271000024202D09A6E1042F9D0704700060E4075
:102720004FF4807303FA00F0014B1860704700BF4C
:1027300000060E40FEE7000000B583B0254B264A98
:102740009A4210D0254B234A9A420CD2013B9B1A45
:1027500023F00303043313441F4951F8040B42F8D8
:10276000040B9A42F9D11E4B1E4A9A420AD2013BEF
:102770009B1A23F0030304331344002142F8041B83
:102780009342FBD1184A194B23F07F039360EFF378
:102790001083B3FA83F35B09019372B6BFF35F8FC3
:1027A0000022134B1A700199124A136843F4700304
:1027B0001360BFF34F8FBFF36F8F29B101220C4B12
:1027C0001A70BFF35F8F62B60B4B98470B4B98475D
:1027D000FEE700BF00004020FC154100C809402072
:1027E000540B4420C809402000ED00E000004000E8
:1027F0001000402088ED00E0493940006D15400090
:102800003B4B1B6B03F00303012B1DD083B1022B49
:1028100036D0374B1B6B03F07003702B5FD0344BFB
:102820001A6B3449C2F302120B68D3400B60704735
:10283000314B5B6913F0800F14BF4FF400424FF42B
:10284000FA422C4B1A60E4E7294B1B6A13F0807F95
:1028500003D02A4A274B1A60DBE7294A254B1A6026
:10286000234B1B6A03F07003102B05D0202BD0D113
:10287000224A204B1A60CCE7224A1E4B1A60C8E756
:102880001B4B1B6A13F0807F16D01C4A194B1A6031
:10289000174B1B6B03F00303022BBAD1144A916A46
:1028A000926A1448C1F30A41036801FB0333D2B2B0
:1028B000B3FBF2F30360ACE7114A0E4B1A600C4B0A
:1028C0001B6A03F07003102B05D0202BE0D10B4ABC
:1028D000084B1A60DCE70B4A064B1A60D8E7054A3A
:1028E00013680949A1FB03135B081360704700BF1D
:1028F00000060E401400402010180E40001BB700C8
:1029000000093D0000127A00ABAAAAAA164B984211
:1029100013D9164B984215D9154B984216D9154B19
:10292000984217D9144B984218D9144B984294BF27
:10293000134A144A144B1A6070474FF08062124BCE
:102940001A607047114A104B1A607047104A0E4BBC
:102950001A6070470F4A0C4B1A6070474FF0042200
:10296000094B1A60704700BFBFF35E017FE7BD02ED
:102970003FDB1C04FFCE7B05BFC2DA067FB63908F9
:102980000005000400060004000C0E4000010004D5
:1029900000020004000300040A4B1B6853B1094BFA
:1029A0001B681A180849914208DB1046054A106056
:1029B00018467047054A034B1A60F0E74FF0FF30A6
:1029C000704700BFDC0A4120FCFF4520582D442001
:1029D0004FF0FF3070474FF400534B6000207047BA
:1029E0000120704700207047F0B58BB0044600F01E
:1029F0004BF8234B93F900506B1C06460AD0214636
:102A0000204600F085FF074620B90021204600F04F
:102A100057FF10B930460BB0F0BD1A4B0897012292
:102A200020468DE80C0000F0E9F90022CDE9040110
:102A3000CDE902010023ADB11046194600F05CFB60
:102A4000022DCDE906010FD100F078FF21230360AC
:102A5000089B7BB9DDE9060100F036FC06463046EE
:102A60000BB0F0BDCDE90623684600F061F8002800
:102A7000EED1E9E700F062FF089B0360EAE700BFE0
:102A8000180040206014410020F00042B2F1FF4FD6
:102A9000F8B504462ED262B3002803463DDBB2F5FA
:102AA000000F4FEAE0502CD37F38C3F3160343F4F2
:102AB0000003C20748BF5B00002647105B00314699
:102AC00019244FF080728D189D4202DC5B1BA918FF
:102AD0001644013C4FEA43034FEA5202F3D113B1CB
:102AE000013626F00106701000F17C5000EBC75053
:102AF000F8BDF8BD014600F045FD214600F03AFC66
:102B0000F8BD14F4000201D00EE00A465B001C027E
:102B100002F10101F9D5801AC6E7014600F028FC50
:102B2000014600F0E3FDF8BD4FF0FF32F3E700BFD0
:102B30000020704781F0004102E000BF83F00043B5
:102B400030B54FEA41044FEA430594EA050F08BF48
:102B500090EA020F1FBF54EA000C55EA020C7FEA0C
:102B6000645C7FEA655C00F0E2804FEA5454D4EB89
:102B70005555B8BF6D420CDD2C4480EA020281EA53
:102B8000030382EA000083EA010180EA020281EA8B
:102B90000303362D88BF30BD11F0004F4FEA0131DD
:102BA0004FF4801C4CEA113102D0404261EB4101EC
:102BB00013F0004F4FEA03334CEA133302D0524272
:102BC00063EB430394EA050F00F0A780A4F101042E
:102BD000D5F1200E0DDB02FA0EFC22FA05F2801868
:102BE00041F1000103FA0EF2801843FA05F359414E
:102BF0000EE0A5F120050EF1200E012A03FA0EFCCD
:102C000028BF4CF0020C43FA05F3C01851EBE371F6
:102C100001F0004507D54FF0000EDCF1000C7EEB13
:102C200000006EEB0101B1F5801F1BD3B1F5001F51
:102C30000CD349085FEA30004FEA3C0C04F1010470
:102C40004FEA445212F5800F80F09A80BCF1004F99
:102C500008BF5FEA500C50F1000041EB045141EA1B
:102C6000050130BD5FEA4C0C404141EB010111F41C
:102C7000801FA4F10104E9D191F0000F04BF0146C7
:102C80000020B1FA81F308BF2033A3F10B03B3F1A5
:102C900020020CDA0C3208DD02F1140CC2F10C0235
:102CA00001FA0CF021FA02F10CE002F11402D8BF93
:102CB000C2F1200C01FA02F120FA0CFCDCBF41EA5F
:102CC0000C019040E41AA2BF01EB0451294330BD2E
:102CD0006FEA04041F3C1CDA0C340EDC04F114040B
:102CE000C4F1200220FA04F001FA02F340EA0300E2
:102CF00021FA04F345EA030130BDC4F10C04C4F128
:102D0000200220FA02F001FA04F340EA0300294607
:102D100030BD21FA04F0294630BD94F0000F83F451
:102D2000801306BF81F480110134013D4EE77FEA34
:102D3000645C18BF7FEA655C29D094EA050F08BF80
:102D400090EA020F05D054EA000C04BF1946104661
:102D500030BD91EA030F1EBF0021002030BD5FEAA5
:102D6000545C05D14000494128BF41F0004130BDCD
:102D700014F580043CBF01F5801130BD01F0004521
:102D800045F0FE4141F470014FF0000030BD7FEA94
:102D9000645C1ABF194610467FEA655C1CBF0B468F
:102DA000024650EA013406BF52EA033591EA030FA6
:102DB00041F4002130BD00BF90F0000F04BF00219E
:102DC000704730B54FF4806404F132044FF00005D1
:102DD0004FF0000150E700BF90F0000F04BF00214A
:102DE000704730B54FF4806404F1320410F00045B0
:102DF00048BF40424FF000013EE700BF42004FEAAB
:102E0000E2014FEA31014FEA02701FBF12F07F4327
:102E100093F07F4F81F06051704792F0000F14BF24
:102E200093F07F4F704730B54FF4607401F0004568
:102E300021F0004120E700BF50EA010208BF7047BF
:102E400030B54FF000050AE050EA010208BF7047B4
:102E500030B511F0004502D5404261EB41014FF41D
:102E6000806404F132045FEA915C3FF4DCAE4FF021
:102E700003025FEADC0C18BF03325FEADC0C18BF08
:102E8000033202EBDC02C2F1200300FA03FC20FA59
:102E900002F001FA03FE40EA0E0021FA02F11444A6
:102EA000C1E600BF70B54FF0FF0C4CF4E06C1CEABB
:102EB00011541DBF1CEA135594EA0C0F95EA0C0F30
:102EC00000F0DEF82C4481EA030621EA4C5123EAA3
:102ED0004C5350EA013518BF52EA033541F48011D2
:102EE00043F4801338D0A0FB02CE4FF00005E1FB85
:102EF00002E506F00042E0FB03E54FF00006E1FBCF
:102F000003569CF0000F18BF4EF0010EA4F1FF0411
:102F1000B6F5007F64F5407404D25FEA4E0E6D4151
:102F200046EB060642EAC62141EA55514FEAC52062
:102F300040EA5E504FEACE2EB4F1FD0C88BFBCF5DE
:102F4000E06F1ED8BEF1004F08BF5FEA500E50F18F
:102F5000000041EB045170BD06F0004646EA010155
:102F600040EA020081EA0301B4EB5C04C2BFD4EB87
:102F70000C0541EA045170BD41F480114FF0000E80
:102F8000013C00F3AB8014F1360FDEBF002001F0EE
:102F9000004170BDC4F10004203C35DA0C341BDC68
:102FA00004F11404C4F1200500FA05F320FA04F03A
:102FB00001FA05F240EA020001F0004221F000416E
:102FC00010EBD37021FA04F642EB06015EEA430EE1
:102FD00008BF20EAD37070BDC4F10C04C4F1200511
:102FE00000FA04F320FA05F001FA04F240EA0200C4
:102FF00001F0004110EBD37041F100015EEA430E95
:1030000008BF20EAD37070BDC4F1200500FA05F2B4
:103010004EEA020E20FA04F301FA05F243EA020333
:1030200021FA04F001F0004121FA04F220EA020042
:1030300000EBD3705EEA430E08BF20EAD37070BD88
:1030400094F0000F0FD101F00046400041EB010168
:1030500011F4801F08BF013CF7D041EA060195F04A
:10306000000F18BF704703F00046520043EB030304
:1030700013F4801F08BF013DF7D043EA06037047F1
:1030800094EA0C0F0CEA135518BF95EA0C0F0CD0FC
:1030900050EA410618BF52EA4306D1D181EA030142
:1030A00001F000414FF0000070BD50EA410606BF3C
:1030B0001046194652EA430619D094EA0C0F02D181
:1030C00050EA013613D195EA0C0F05D152EA0336C6
:1030D0001CBF104619460AD181EA030101F00041E4
:1030E00041F0FE4141F470014FF0000070BD41F02D
:1030F000FE4141F4780170BD70B54FF0FF0C4CF407
:10310000E06C1CEA11541DBF1CEA135594EA0C0F25
:1031100095EA0C0F00F0A7F8A4EB050481EA030E72
:1031200052EA03354FEA013100F088804FEA033359
:103130004FF0805545EA131343EA12634FEA022227
:1031400045EA111545EA10654FEA00260EF00041E8
:103150009D4208BF964244F1FD0404F5407402D23A
:103160005B084FEA3202B61A65EB03055B084FEACB
:1031700032024FF480104FF4002CB6EB020E75EBC8
:10318000030E22BFB61A754640EA0C005B084FEAF0
:103190003202B6EB020E75EB030E22BFB61A75466D
:1031A00040EA5C005B084FEA3202B6EB020E75EBB8
:1031B000030E22BFB61A754640EA9C005B084FEA30
:1031C0003202B6EB020E75EB030E22BFB61A75463D
:1031D00040EADC0055EA060E18D04FEA051545EA2C
:1031E00016754FEA06164FEAC30343EA52734FEAD5
:1031F000C2025FEA1C1CC0D111F4801F0BD141EA4E
:1032000000014FF000004FF0004CB6E711F4801FB2
:1032100004BF01430020B4F1FD0C88BFBCF5E06F92
:103220003FF6AFAEB5EB030C04BFB6EB020C5FEAA2
:10323000500C50F1000041EB045170BD0EF0004EF7
:103240004EEA113114EB5C04C2BFD4EB0C0541EA29
:10325000045170BD41F480114FF0000E013C90E626
:1032600045EA060E8DE60CEA135594EA0C0F08BFEA
:1032700095EA0C0F3FF43BAF94EA0C0F0AD150EAE9
:1032800001347FF434AF95EA0C0F7FF425AF10467C
:1032900019462CE795EA0C0F06D152EA03353FF4A4
:1032A000FDAE1046194622E750EA410618BF52EA21
:1032B00043067FF4C5AE50EA41047FF40DAF52EAF5
:1032C00043057FF4EBAE12E74FEA4102B2F1E0436F
:1032D00024BFB3F5001CDCF1FE5C0DD901F0004CFD
:1032E0004FEAC0024CEA5070B2F1004F40EB83004D
:1032F00008BF20F00100704711F0804F21D113F179
:103300003872BCBF01F00040704741F480114FEAB1
:103310005252C2F11802C2F1200C10FA0CF320FA3A
:1033200002F018BF40F001004FEAC1234FEAD32357
:1033300003FA0CFC40EA0C0023FA02F34FEA4303C1
:10334000CCE77FEA625307D150EA01331EBF4FF04A
:10335000FE4040F44000704701F0004040F0FE4065
:1033600040F40000704700BF80F0004002E000BF62
:1033700081F0004142001FBF5FEA410392EA030F60
:103380007FEA226C7FEA236C6AD04FEA1262D2EBAA
:103390001363C1BFD218414048404140B8BF5B42AF
:1033A000192B88BF704710F0004F40F4000020F048
:1033B0007F4018BF404211F0004F41F4000121F05E
:1033C0007F4118BF494292EA030F3FD0A2F10102A8
:1033D00041FA03FC10EB0C00C3F1200301FA03F1E6
:1033E00000F0004302D5494260EB4000B0F5000F09
:1033F00013D3B0F1807F06D340084FEA310102F1C8
:103400000102FE2A51D2B1F1004F40EBC25008BF79
:1034100020F0010040EA03007047490040EB000043
:1034200010F4000FA2F10102EDD1B0FA80FCACF172
:10343000080CB2EB0C0200FA0CF0AABF00EBC25071
:1034400052421843BCBFD0401843704792F0000F5F
:1034500081F4000106BF80F400000132013BB5E7B2
:103460004FEA41037FEA226C18BF7FEA236C21D028
:1034700092EA030F04D092F0000F08BF084670478D
:1034800090EA010F1CBF0020704712F07F4F04D15B
:10349000400028BF40F00040704712F100723CBF6E
:1034A00000F50000704700F0004343F0FE4040F498
:1034B000000070477FEA226216BF08467FEA236356
:1034C0000146420206BF5FEA412390EA010F40F441
:1034D000800070474FF0000304E000BF10F000438D
:1034E00048BF40425FEA000C08BF704743F0964374
:1034F00001464FF000001CE050EA010208BF70478F
:103500004FF000030AE000BF50EA010208BF704715
:1035100011F0004302D5404261EB41015FEA010C2A
:1035200002BF84460146002043F0B64308BFA3F122
:103530008053A3F50003BCFA8CF2083AA3EBC25304
:1035400010DB01FA02FC634400FA02FCC2F1200223
:10355000BCF1004F20FA02F243EB020008BF20F05A
:103560000100704702F1200201FA02FCC2F12002C0
:1035700050EA4C0021FA02F243EB020008BF20EAB5
:10358000DC7070474FF0FF0C1CEAD0521EBF1CEAE3
:10359000D15392EA0C0F93EA0C0F6FD01A4480EAD1
:1035A000010C400218BF5FEA41211ED04FF00063BA
:1035B00043EA501043EA5111A0FB01310CF00040E6
:1035C000B1F5000F3EBF490041EAD3715B0040EA0C
:1035D000010062F17F02FD2A1DD8B3F1004F40EBDC
:1035E000C25008BF20F00100704790F0000F0CF0AF
:1035F000004C08BF49024CEA502040EA51207F3A73
:10360000C2BFD2F1FF0340EAC250704740F400004D
:103610004FF00003013A5DDC12F1190FDCBF00F03E
:1036200000407047C2F10002410021FA02F1C2F1EC
:10363000200200FA02FC5FEA310040F1000053EA88
:103640004C0308BF20EADC70704792F0000F00F0D6
:10365000004C02BF400010F4000F013AF9D040EADC
:103660000C0093F0000F01F0004C02BF490011F470
:10367000000F013BF9D041EA0C018FE70CEAD1536E
:1036800092EA0C0F18BF93EA0C0F0AD030F0004CEE
:1036900018BF31F0004CD8D180EA010000F00040A2
:1036A000704790F0000F17BF90F0004F084691F060
:1036B000000F91F0004F14D092EA0C0F01D142029A
:1036C0000FD193EA0C0F03D14B0218BF084608D163
:1036D00080EA010000F0004040F0FE4040F40000AD
:1036E000704740F0FE4040F4400070474FF0FF0C40
:1036F0001CEAD0521EBF1CEAD15392EA0C0F93EA87
:103700000C0F69D0A2EB030280EA010C49024FEAD8
:10371000402037D04FF0805343EA111143EA101391
:103720000CF000408B4238BF5B0042F17D024FF449
:10373000000C8B4224BF5B1A40EA0C00B3EB510F24
:1037400024BFA3EB510340EA5C00B3EB910F24BF0D
:10375000A3EB910340EA9C00B3EBD10F24BFA3EB92
:10376000D10340EADC001B0118BF5FEA1C1CE0D15A
:10377000FD2A3FF650AF8B4240EBC25008BF20F00D
:10378000010070470CF0004C4CEA50207F32C2BF61
:10379000D2F1FF0340EAC250704740F400004FF0FE
:1037A0000003013A37E792F0000F00F0004C02BF2F
:1037B000400010F4000F013AF9D040EA0C0093F0F9
:1037C000000F01F0004C02BF490011F4000F013B53
:1037D000F9D041EA0C0195E70CEAD15392EA0C0FBB
:1037E00008D142027FF47DAF93EA0C0F7FF470AFF3
:1037F000084676E793EA0C0F04D14B023FF44CAF36
:1038000008466EE730F0004C18BF31F0004CCAD1CA
:1038100030F000427FF45CAF31F000437FF43CAF06
:103820005FE700BF4FF0FF3C06E000BF4FF0010C28
:1038300002E000BF4FF0010C4DF804CD4FEA40020A
:103840004FEA41037FEA226C18BF7FEA236C11D054
:1038500001B052EA530C18BF90EA010F58BFB2EB07
:10386000030088BFC81738BF6FEAE17018BF40F087
:10387000010070477FEA226C02D15FEA402C05D13B
:103880007FEA236CE4D15FEA412CE1D05DF8040BC0
:10389000704700BF844608466146FFE70FB5FFF753
:1038A000C9FF002848BF10F1000F0FBD4DF808ED0B
:1038B000FFF7F4FF0CBF012000205DF808FB00BFFC
:1038C0004DF808EDFFF7EAFF34BF012000205DF856
:1038D00008FB00BF4DF808EDFFF7E0FF94BF0120A3
:1038E00000205DF808FB00BF4DF808EDFFF7D2FFA0
:1038F00094BF012000205DF808FB00BF4DF808EDE3
:10390000FFF7C8FF34BF012000205DF808FB00BFAF
:103910004FEA40024FEA41037FEA226C02D15FEA9C
:10392000402C08D17FEA236C02D15FEA412C02D1FE
:103930004FF0000070474FF001007047014B1868CE
:10394000704700BF1C00402070B50F4E0F4D761B16
:10395000B61018BF002405D0013455F8043B984731
:10396000A642F9D10A4E0B4D761B0DF031FEB61072
:1039700018BF002406D0013455F8043B9847A642EE
:10398000F9D170BD70BD00BFDC154100DC154100F0
:10399000E4154100DC1541000FB400B5074983B0C0
:1039A00004AB086853F8042B8168019300F066F9B2
:1039B00003B05DF804EB04B0704700BF1C0040206A
:1039C00070B4860746D0541E002A41D0CAB20346BE
:1039D00002E014F1FF343BD303F8012B9D07F8D12B
:1039E000032C2ED9CDB245EA05250F2C45EA054515
:1039F00019D903F110022646103E0F2E42F8105C32
:103A000042F80C5C42F8085C42F8045C02F11002D7
:103A1000F2D8A4F1100222F00F0204F00F041032C9
:103A2000032C13440DD91E462246043A032A46F8B5
:103A3000045BFAD8221F22F003020432134404F07C
:103A400003042CB1C9B21C4403F8011B9C42FBD1F6
:103A500070BC704714460346C2E700BF00290CBF84
:103A6000022200224FF4806300F000B82DE9F043F9
:103A7000614C256883B004460F4690461E4615B13A
:103A8000AB6B002B64D0B8F1020F06D0B8F1010F78
:103A900000F29F80002EC0F29C80636ED80734D560
:103AA0002146284601F088F8216B41B104F140031A
:103AB000994202D0284601F0FDF900232363B4F9AE
:103AC0000C300022A26162601A063AD423F44A63E1
:103AD00023F00303B8F1020FA3811DD001AB6A46A6
:103AE0002146284601F084FCA3891843A081002EBA
:103AF00032D1009E304601F0F3FC074600286BD01F
:103B0000A38943F08003A38128E0A3899905C7D442
:103B1000A06D01F069FCC3E70025616E002604F189
:103B2000430243F002030120A660CE07A381226076
:103B30002261606101D498053ED5284603B0BDE8F6
:103B4000F0832169284601F0B5F9B4F90C30BDE7DE
:103B5000284601F089F896E7002FCBD0AB6B002BFD
:103B600033D0009BB4F90C2027609E421CBF42F466
:103B70000062A281B8F1010F04BF42F00102A281EC
:103B800092B212F00803276166610ED0D1071AD5F0
:103B9000656E7642002315F00105A661A36009D089
:103BA0000025284603B0BDE8F083A360656E15F0DC
:103BB0000105F5D19305C0D4A06D01F017FC28468E
:103BC00003B0BDE8F083A660F0E7284601F04CF8AA
:103BD000C7E74FF0FF35B0E7DDF80090B14504D0FE
:103BE000484601F07DFC074620B9B4F90C304FF08F
:103BF000FF3592E74E4683E71C0040202DE9F84F41
:103C00004B6E9C0493462FD59368126853B30E46AF
:103C1000074602F1080919E920045FEA9A0817D05B
:103C2000043D002401E0A04510D0324655F8041FA1
:103C3000384601F0BBF8431C04F10104F3D1002322
:103C4000CBF80830CBF80430BDE8F88FDBF808304B
:103C50002AF0030AA3EB0A03CBF8083009F108099C
:103C6000002BD8D10020EAE701F00AFA0023CBF8B4
:103C70000830CBF80430BDE8F88F00BF2DE9F04FD5
:103C8000ADB01D468B4690460793069018B1836BE6
:103C9000002B00F0F380DBF86430BBF90C00DF0789
:103CA00081B202D48E0540F1FC808C040AD4DBF88A
:103CB000643040F4005123F40053ABF80C10CBF8FF
:103CC000643089B2080740F1B380DBF81030002B74
:103CD00000F0AE8001F01A030A2B00F0B58000233B
:103CE0000DF170090B93119310930393CDF83C9051
:103CF000CA46CDF810B098F800304446FBB1252BE9
:103D000002D11CE0252B03D014F8013F002BF9D180
:103D1000A4EB08059DB1109B119ACAF800800133ED
:103D20002A44072BCAF80450119210937ADD002A16
:103D300040F0B084039B10922B44CA46039323782F
:103D4000002B00F0E08300204FF000038DF83730A7
:103D500004F1010862780546064603464FF0FF3439
:103D600008F10108A2F12001582900F2DE82DFE803
:103D700011F02102DC02DC022902DC02DC02DC029E
:103D8000DC02DC02DC0289029502DC02A200BD0238
:103D9000DC029F01A401A401A401A401A401A401C7
:103DA000A401A401A401DC02DC02DC02DC02DC02CE
:103DB000DC02DC02DC02DC02DC02B201DC02DC023E
:103DC000DC02DC02DC02DC02DC02DC02DC02DC0203
:103DD0009701DC02DC02DC02DC02DC029B01DC027B
:103DE000DC025302DC02DC02DC02DC02DC02DC026C
:103DF000DC02DC02DC02DC025A021B02DC02DC0216
:103E0000DC026E021B02DC02DC027302DC02F50142
:103E100082010902D702DC029A02DC02A700DC025E
:103E2000DC022E020AF1080A039B2B44039386E767
:103E30005946069800F0ACFD18BBBBF80C1001F019
:103E40001A030A2B7FF44BAFBBF90E30002BFFF6A1
:103E500046AFDBF86430DB0705D48F0503D4DBF80D
:103E6000580001F0C3FA2B4642465946069800F026
:103E70004DFD039003982DB0BDE8F08F00F0F4FEE7
:103E800009E7DBF86430D90704D4BBF80C309A0595
:103E900040F1AA844FF0FF33039303982DB0BDE89F
:103EA000F08FDBF8580001F09FFABBF90C0081B2EB
:103EB000FBE67642079243F0040398F800204FE7B0
:103EC00008969E0600F150840799DD060A4600F127
:103ED000EF83580640F1EC830E880431002701225D
:103EE00007914FF000018DF837100025611C00F09C
:103EF000168123F08001029156EA070140F01481F7
:103F0000002C40F05C83002A40F0B78313F00103DB
:103F1000059300F057840DF1B00B30230BF8413DB1
:103F2000059BA342B8BF234601930DB10133019312
:103F3000029B13F00203099302D0019B0233019309
:103F4000029B13F084030A9340F01782089B019AA6
:103F50009D1A002D40F31182102D40F39084109B88
:103F6000119AC44ED6461027A2461946069C07E071
:103F700001F1020C0EF1080E0146103D102D11DD6D
:103F8000481C1032072811928EE8C0001090EFDD17
:103F9000002A40F0E481103D102D11464FF0010C35
:103FA000CE46EDDC54466146F2462A44072911927A
:103FB000CAF80060CAF80450109100F3EC829DF832
:103FC00037500AF1080A481C002D40F0DE81099B99
:103FD000002B00F0F88102320EA90223072811926B
:103FE00010908AE80A0040F3EA81002A40F08C83AE
:103FF0000A9B802B4FF001001146CA4640F0E78132
:10400000089B019D5E1B002E40F3E181102E9A4D0E
:1040100040F35084D4461027A246069C07E001F1E5
:10402000020E0CF1080C0146103E102E11DD481C4A
:104030001032072811928CE8A0001090EFDD002AC2
:1040400040F09D82103E102E4FF0010E1146CC46DE
:10405000EDDC5446E2463244BEF1070F11928AE885
:104060006000CDF840E000F369830AF1080A0EF120
:1040700001007146ABE1089613F0200240F08C83FA
:1040800013F0100140F01A8313F0400200F0168381
:1040900007980A460146043106880791002720E761
:1040A000089643F01003E7E7089643F0100308E78B
:1040B00043F0800398F8002052E6A2F13001002678
:1040C00018F8012B06EB860601EB4606A2F130013B
:1040D0000929F5D946E60896002840F0088443F0FF
:1040E00010039E0600F14C83DD0600F1F3825806B2
:1040F00040F1F082079DB5F900602A46F7170432B7
:10410000304639460792002871F10002C0F25D8303
:10411000611C9DF837504FF001027FF4EAAE56EA79
:10412000070100F04D820293012A00F08C82022ADE
:1041300040F05C820B98CB46330906F00F0143EA4E
:1041400007733A091E461746435C0BF8013D56EAD1
:104150000703F1D1A9EB0B030593E1E6002840F03A
:10416000C083990600F16783DA0600F1F1805B06EF
:1041700040F1EE80079A136804320792BDF80C20D4
:104180001A80B8E507983D4A08960B92066878228F
:10419000302104308DF8392043F0020307900027C6
:1041A0008DF8381002229CE60896002899D08DF8E8
:1041B000375096E798F80020002D7FF4D1AD01200C
:1041C0002025CDE543F0010398F80020C8E50896C6
:1041D000002840F0938329490B919F0600F1E88263
:1041E0000798DE06014600F170825D0640F16D829F
:1041F0000431068807910027D80740F1228256EA49
:10420000070100F01E8230218DF8392043F00203AF
:104210008DF83810022264E60896002840F06B837F
:1042200017490B91D9E7079908960A688DF8482035
:104230004FF000000A468DF837000432012001904B
:10424000079205900DF1480B0293002470E643F0AD
:10425000400398F8002083E598F800206C2A03BFFB
:1042600098F8012043F0200308F1010843F01003FF
:1042700076E500BF9C144100AC144100801441005D
:104280006C14410007990E680A46002E02F10402E0
:10429000FFF60FAE079298F8002061E598F800202D
:1042A00001202B255CE507990896D1F800B04FF066
:1042B00000028DF837200E1DBBF1000F00F0E582E3
:1042C000671C00F0C482224600215846019301F089
:1042D000D7FB019B002800F0E582A0EB0B020592C2
:1042E000079602939DF83750002419E698F80020AD
:1042F0002A2A08F1010700F0E982A2F13001092918
:10430000B8464FF000043FF62DAD18F8012B04EB32
:10431000840401EB4404A2F130010929F5D921E517
:1043200043F0200398F800201AE50896002840F092
:10433000DB82002A00F0E78001218DF848204FF051
:10434000000201918DF8372005910DF1480B7BE7B4
:10435000079A136804320792039A1A60CBE40FAAF3
:1043600004992046FFF74AFC002840F03981109953
:10437000119A01F1010CCE46FFE51099119A481CE3
:104380009DF83750002D3FF422AE01320DF1370574
:104390000121072811921090CAF80050CAF80410A1
:1043A00040F30881002A40F0BC81099B002B3FF4B8
:1043B0001FAE0EAB022208461C931D92CA46014650
:1043C0000AF1080A01300A9B802B3FF419AE059BC5
:1043D000E41A002C2EDD102CB34D1EDDD64610261F
:1043E000069FDDF810A006E0881C0EF1080E1946A5
:1043F000103C102C10DD4B1C1032072B11928EE854
:1044000060001093F0DD002A65D1103C102C4FF0B5
:1044100001001146CE46EEDCF246224407281192F6
:10442000CAF80050CAF80440109000F385800AF1E1
:10443000080A01300599CAF800B00A440728119209
:10444000CAF80410109040F38280002A40F01881CE
:10445000029B1092580735D5089B01995C1A002CD5
:1044600040F3E780CA46102C40F3188210998F4E13
:10447000069FDDF810B0102506E0881C0AF1080A36
:104480001946103C102C11DD4B1C1032072B1192D9
:10449000CAF80060CAF804501093EEDD42BB103C2D
:1044A000102C4FF001001146CA46EDDC22440728CB
:1044B0001192CAF80060CAF80440109051DD002A39
:1044C00040F09B81039B089A01998A42ACBF9B18DC
:1044D0005B1803934EE00FAA51463846FFF78EFB58
:1044E000002840F03F811099119A481CCE467FE782
:1044F0000FAA59463846FFF781FB60B91099119A07
:10450000481CCA46BDE7119BDDF810B0002B40F0F7
:10451000D48100231093DBF8643013F0010FBBF853
:104520000C3002D19A0540F1DE805B063FF5B2AC5B
:1045300003982DB0BDE8F08F002A40F00681059A5F
:104540001D9201231192CDF870B01093CA460AF162
:10455000080A029B590704D5089B01995C1A002C94
:1045600081DC039B089901988142ACBF5B181B1842
:10457000039372BB00231093CA46FFF7BCBB0FAA7C
:1045800004992046FFF73AFB50BB1099119A01F1AC
:10459000010ECC4648E5002A40F040819DF83710D6
:1045A000002900F01B8101220DF1370110461D92F8
:1045B0001C91CA4601460AF1080A013007E5029B30
:1045C000012A00F09880022A0DD1029300260027CC
:1045D000B0E50FAA04990698FFF710FB0028C9D090
:1045E000DDF810B097E7029300260027494600E067
:1045F0005946F20842EA4772F80806F007030746F0
:104600001646303356EA070201F8013C01F1FF3B40
:10461000EED1029AD6077FF59DAD302B3FF49AADCF
:10462000023930230BF8013CA9EB010305938B46BB
:1046300076E4039B089A8A42ACBF9B185B180393ED
:1046400098E702224DE4002F08BF0A2E52D3CB4632
:10465000304639460A22002301F0AEFF30320BF813
:10466000012D3046394600230A2201F0A5FF0646F7
:104670000F4656EA0703EBD16CE50594CB464FE4B1
:104680000FAA04990698FFF7B9FA0028A8D1119A41
:10469000CA465EE70FAA04990698FFF7AFFA00280A
:1046A0009ED1CA46FFF7C0BBAC1441009C14410028
:1046B0000431166807910122002712E40798014689
:1046C00004310668079100270BE40E680431079156
:1046D000002791E507990E680A46F71704320792FA
:1046E000304639460FE5DBF8580000F07FFEBBF896
:1046F0000C301AE7029B02930DF1B00B3036012308
:104700000BF8416D05930BE40FAA04990698FFF787
:1047100075FA00287FF464AF1099119A481CCA46B4
:1047200051E60FAA04990698FFF768FA00287FF46B
:1047300057AF1099119A481CCA4648E4002A40F025
:10474000918001201146CA4641E60FAA04990698B5
:10475000FFF754FA00287FF443AF1098119A013004
:10476000CA4667E6D346D6E6079E073626F0070216
:1047700002F10801D2E9006707910122FFF7B1BBFE
:10478000079E073626F00706D6E9000106F1080263
:10479000079206460F46B6E4079E073626F0070244
:1047A00002F10801D2E9006707910022FFF799BBE7
:1047B000079E073626F0070101F108000790D1E9AE
:1047C000006719E5CB46FFF7ABBB2D25764267EBBB
:1047D00047078DF837500122FFF788BB099BB3B913
:1047E00011460120CA46F2E5DBF8580000F0FEFD54
:1047F0004FF0FF330393FFF750BB0FAA04990698BD
:10480000FFF7FCF900287FF4EBAE119AA9E60EAB96
:1048100002221C931D920120CA46D0E50FAA0499DA
:104820000698FFF7EBF900287FF4DAAE1099119A99
:10483000481CCA46A4E5079A03991368CD17084691
:10484000043229460792C3E90001FFF754BA5846DB
:104850000796029301F074FC002405909DF83750F0
:10486000FFF75EBB0FAA04990698FFF7C7F9002867
:104870007FF4B6AE1099119A481CCA46A7E5109964
:10488000119A204E0131FFF790BB062C28BF062459
:10489000059407960194DFF870B0D5E41098194E8E
:1048A000013003E605949DF83750079602930446BD
:1048B000FFF736BB8646FFF7CEBB06980FAA5946D0
:1048C000FFF79CF900283FF424AE24E6079998F8F6
:1048D00001200C68043144EAE474B8460791FFF7FC
:1048E0003FBA8DF837503CE48DF8375021E58DF80C
:1048F0003750FFF7F4BB8DF8375091E48DF83750FF
:1049000069E400BF9C144100941441002DE9F0417A
:104910000C46ADF58D6D8989666EE589199621F095
:1049200002010646E069ADF80C1017464FF48061AD
:10493000626AADF80E5098461AAD0023079016A88B
:1049400009920693009504950291059100F048FDA7
:1049500043463A4669463046FFF790F9051E07DBA5
:104960003046694600F028F9002818BF4FF0FF359F
:10497000BDF80C305B0603D5A38943F04003A38147
:10498000169800F02FFD28460DF58D6DBDE8F081DD
:1049900038B5304B1B6805460C4613B19A6B002A9C
:1049A00038D0B4F90C2093B218070CD52069A8B1FF
:1049B00013F001021ED0636900225B42A361A26072
:1049C000F0B1002038BDD9063CD5580726D420695F
:1049D00042F00803A3819BB20028E9D103F42072BE
:1049E000B2F5007FE4D02846214600F02FFDA389D0
:1049F0002069DDE7990758BF6269A2600028E0D10D
:104A0000B4F90C301A06DDD543F04003A3814FF012
:104A1000FF3038BD184600F027F9C2E7216B51B1CD
:104A200004F14003994204D0284600F043FAB4F957
:104A30000C200023236300232069636022F02402FA
:104A40002060C5E742F0400209232B604FF0FF30A1
:104A5000A28138BD1C004020024B13B1024800F077
:104A600005B8704700000000D94C40000023014603
:104A70001A46184601F078BCB1F90C309AB22DE90B
:104A8000F0410D46110780463AD46A6843F400634A
:104A9000002AAB816FDDAC6A002C49D000229BB2AA
:104AA000D8F80060C8F8002013F4805267D02A6D4F
:104AB0005F0705D569682B6B521A0BB1EB6BD21AE5
:104AC0000023E9694046A047441C3CD0B5F90C30AE
:104AD0002A692A6023F400630022AB81DB046A6048
:104AE00047D4296BC8F8006011B305F1400399421F
:104AF00002D0404600F0DEF900202863BDE8F081D6
:104B00002E69AEB12C682E6091070CBF6B69002333
:104B1000A41BAB600AE0234632466F6AE96940464F
:104B2000B8470028A4EB0004064404DD002CF2DCA6
:104B30000020BDE8F081AB8943F04003AB814FF02A
:104B4000FF30BDE8F081D8F800401D2CF3D8194B98
:104B5000E340DB4313F00103EDD1B5F90C206B60AA
:104B600022F400632969AB81DA042960B9D5002CED
:104B7000B7D12865B5E7EA6B002A8CDCD8E70123BA
:104B8000E9694046A047431C024602D0AB89AC6AA3
:104B90008EE7D8F80030002BF8D01D2B01D0162B53
:104BA00002D1C8F80060C3E7AB8943F04003AB8192
:104BB000BDE8F0810100402038B50D46044608B13B
:104BC000836BBBB1B5F90C0088B16B6EDB0701D408
:104BD000810517D520462946FFF74EFF6B6EDA0791
:104BE000044602D4AB899B0507D5204638BD044650
:104BF000204638BD00F038F8E4E7A86D00F0F6FB79
:104C0000204638BDA86D00F0EFFBE3E7014900F056
:104C1000AFBB00BF5164400010B500230446818142
:104C2000C2810360436083604366036143618361C3
:104C3000194608225C30FEF7C3FE07480749084AB8
:104C4000084B2062E4616162A262E36204F15800F1
:104C5000BDE8104000F0C4BBA5604000C960400042
:104C6000056140002561400010B50446124800F07F
:104C7000BBFBA26BD2B904F53B731048C4F8E83211
:104C80000321C4F8E022E063C4F8E4126068042160
:104C9000FFF7C2FF01220921A068FFF7BDFF022232
:104CA0001221E068FFF7B8FF0123A3630248BDE8C3
:104CB000104000F09BBB00BF380B44200D4C40005F
:104CC000014800F091BB00BF4C0B4420014800F0AC
:104CD0008DBB00BF4C0B442038B50A4C0A4D641BF9
:104CE000A4100AD004F18043013B05EB8305013C8D
:104CF00055F804399847002CF9D1BDE838400CF03C
:104D000071BC00BFF4154100F01541002DE9F047DA
:104D100082B080468946144600F054FB012836D004
:104D20004A4604F15C0301A9404601F0CFFA421C57
:104D3000064625D0A8B39DF804E000250DF1040A2D
:104D400009E023685A1C226083F800E00135B5426F
:104D500027D215F80AE0A368013B002BA360F0DA24
:104D6000A769BB4271462246404602DBBEF10A0FEC
:104D7000E7D101F053FA431CE8D102B0BDE8F08757
:104D8000A38943F04003A38102B0BDE8F08709F195
:104D9000FF33FE2BC4D85FFA89FE06468DF804E087
:104DA000CBE7484602B0BDE8F08700BF30B5536E90
:104DB00013F0010FB2F90C30144683B005469AB2D5
:104DC00001D190051CD5900406D4626E43F40053C3
:104DD00042F40052A381626628462246FFF796FFFE
:104DE000636EDA07054602D4A3899B0502D52846DF
:104DF00003B030BDA06D00F0F9FA284603B030BD15
:104E0000A06D019100F0F0FAB4F90C3001999AB25A
:104E1000D9E700BFF8B5244F0C46064600F07EFFE8
:104E2000BB685D68C4F57E610F3125F00305294438
:104E300021F47F6121F00F01A1F58054B4F5805F6A
:104E400007DB0021304601F01BF9BB682B44984278
:104E500004D0304600F068FF0020F8BD61423046C3
:104E600001F00EF901300DD0104BBA6819682D1BF6
:104E700045F001053046091B5560196000F054FFEC
:104E80000120F8BD0021304601F0FAF8BA68831A13
:104E90000F2BDEDD064C0549246843F00103001B9F
:104EA00053600860D5E700BFB8054020E00A412004
:104EB000C0094020002944D02DE9F0410D4680462C
:104EC00000F02CFF55F8047C694927F00103A5F197
:104ED0000804E2188E685068B24220F003005ED0E9
:104EE000FE0750600BD455F8087CE41B01F1080E56
:104EF000A56875453B446DD0E768EF60BD60151847
:104F00006D68ED073ED543F001026260E350B3F5F2
:104F1000007F17D2DB08581C9A104D6851F830708A
:104F2000A7600123934001EBC0022B43083AE260E3
:104F30004B6041F83040FC604046BDE8F04100F075
:104F4000F3BE70475A0A042A52D89A0902F1390767
:104F5000FF0002F13805C819CA59083890424FD0ED
:104F6000516821F003018B4232D292689042F7D10E
:104F7000C368A060E3609C60C4604046BDE8F04147
:104F800000F0D2BE95683B4FBD42034440D0D0688C
:104F9000E86043F0010285606260E350B7E7FF0715
:104FA000034407D455F8082CA41A1344A068E268F7
:104FB000C2609060304A126843F001009342606022
:104FC0008C60B9D32D4B40461968FFF723FFB3E738
:104FD0001046CDE711184968C90744D49168D268D2
:104FE000CA60034443F0010091606060E350A3E7AE
:104FF000142A16D802F15C07FF0002F15B05AAE74C
:10500000AA1001234D6893402B434B600346B0E741
:1050100043F001024C610C61E560A5606260E35001
:105020008AE7542A06D81A0B02F16F07FF0002F133
:105030006E0590E7B2F5AA7F06D8DA0B02F1780781
:10504000FF0002F1770586E740F25450824206D80D
:105050009A0C02F17D07FF0002F17C057BE74FF41B
:105060007E777E2577E743F001016160136063E797
:10507000B8054020C0054020C4094020100B412045
:105080009368002B73D02DE9F04F8B8983B00C46C9
:1050900019070090164626D5226922B313F00200A4
:1050A00035682CD04FF00009B04FC846B246B8451D
:1050B00043464A4628BF3B460098B8F1000F50D0FF
:1050C000E169666AB047002858DDDAF808301B1A33
:1050D0008144A8EB0008CAF80830002BE7D1002073
:1050E00003B0BDE8F08F21460098FFF751FC00287F
:1050F00040F03381A389356813F00200D2D113F058
:10510000010945D14F46019637B39A05D4F8088076
:1051100040F183804745C346C0F0AB8013F4906FE5
:1051200040F0AC802068BA465A46494600F092FDED
:10513000A2682368A2EB08025B44A2602360019A84
:105140009368A3EB0A03D144A7EB0A079360002BF3
:10515000C5D0A389002FD8D1D5F800906F68083545
:10516000D2E7D5F80090D5F8048008359FE70020F5
:10517000704721460098FFF71FFD70B3B4F90C305B
:1051800043F040034FF0FF30A38103B0BDE8F08F40
:10519000814633464E46A8469A464D464EB380B3A6
:1051A000206823696269B145CB4628BFB34698425F
:1051B0005F4604D9A36813449B4500F3A68093453A
:1051C0004BDB1346676AE16900982A46B847071E19
:1051D000D4DDB9EB0709CCD00120DAF80830DB1BAD
:1051E0003D44F61BCAF80830002B3FF478AF002E80
:1051F000D5D108F1080313E9600098460833002E62
:10520000F9D032460A21284600F03AFC002800F086
:10521000A1800130A0EB0509C2E72068236998420C
:1052200002D863699F425DD2B84528BFB84642465E
:10523000494600F00FFDA3682268A3EB080342442F
:10524000A36022600BB1C24679E721460098FFF7C0
:10525000B3FC002892D1C24671E75A46294600F0B5
:10526000F9FCA2682368A2EB0B025B44A2602360F6
:10527000AFE72068B846BA46BB4655E76269206882
:10528000216902EB4208A0EB010A08EBD8780AF189
:1052900001004FEA680838444045424684BF8046D2
:1052A00042465B0544D51146009800F021F983463B
:1052B000002855D05246216900F032FCA38923F41E
:1052C000906343F08003A3810BEB0A00A8EB0A0371
:1052D000C4F810B0C4F814802060A360B846BA4681
:1052E000BB4621E76FF00041B94228BF39464A4624
:1052F00091FBF3F10098666A03FB01F3E169B047A3
:10530000B0F1000A3FF71BAF38E71A462946019370
:1053100000F0A0FC2268019B00981A4422602146FC
:10532000FFF74AFC019B00287FF428AF1F4650E797
:10533000009800F0FFFC83460028C5D1009D21693C
:105340002846FFF7B7FDB4F90C300C2223F0800398
:105350002A6015E706F1010922E74FF0FF30BFE6AA
:10536000009A0C231360B4F90C3009E700FCFF7FAE
:105370002DE9F84310F538771FD0884606464FF0E0
:1053800000097D68BC68013D11D4A389012B05F19A
:10539000FF3508D9B4F90E3001332146304602D02A
:1053A000C04749EA00096B1C04F16804EDD13F686D
:1053B000002FE6D14846BDE8F883B9464846BDE827
:1053C000F88300BF044B054A1B685B6B002B08BFCA
:1053D000134693F8280170471C0040204C044020DD
:1053E000704700BF704700BF704700BF704700BFE5
:1053F00070B50C46B1F90E10002990B015461E4646
:1054000014DB01AA01F086F800280FDB029A02F4EF
:105410007042A2F50052B2FA82F252094FF4806350
:105420004FF4006032602B6010B070BDA289002381
:1054300012F08000336004D0402218462A6010B079
:1054400070BD4FF480632B6010B070BD8A899207E5
:105450000B4606D501F1430201211A601A61596118
:105460007047F0B583B001AB6A460C460646FFF7BD
:10547000BFFF00990546304600F03AF8B4F90C3009
:10548000D8B1019A154F0099F76343F08003A381C7
:105490002060206161611AB92B43A38103B0F0BD84
:1054A0003046B4F90E1001F049F8A0B1A38923F0F9
:1054B000030343F001031BB2EEE79A05EED423F099
:1054C000030304F1430243F002030121A38122609C
:1054D00022616161E2E7B4F90C30DDE70D4C400078
:1054E000024B0146186800F003B800BF1C004020C2
:1054F0002DE9F04F01F10B06162E83B0054640F260
:105500009E8036F0070600F1BD80B14200F2BA80FD
:1055100000F004FCB6F5FC7FC0F09382730A00F043
:10552000B880042B00F27981B30903F1390003F14B
:10553000380EC300BF4F3B44A3F108015C68A14291
:1055400006D10CE0002A80F2AA80E468A14206D0CD
:10555000636823F003039A1B0F2AF3DD70463C694E
:10556000DFF8E4E2744500F0AB81636823F00303E5
:105570009A1B0F2A00F39081002AC7F814E0C7F89D
:1055800010E080F29D80B3F5007F80F06181DB0840
:1055900003F1010C99107A6857F83C80C4F8088030
:1055A00001238B4007EBCC0113430839E1607B609A
:1055B00047F83C40C8F80C408210012494409C42BB
:1055C00000F28B801C4206D120F0030064001C42D4
:1055D00000F10400FAD007EBC009CC468046DCF8A5
:1055E0000C309C4507D16DE1002A80F27B81DB689D
:1055F0009C4500F06781596821F003018A1B0F2A3E
:10560000F2DDD3F80CC0D3F8088000939C1928462B
:1056100046F0010642F001055E60C8F80CC0CCF807
:1056200008807C613C61C4F80CE0C4F808E0656067
:105630005A5000F079FB009B03F108041EE010298A
:1056400020D800F06BFB102618230220794F3B4432
:10565000A3F108025C68944200F03D816368E16850
:10566000A66823F00303234428465A68F16042F0F9
:1056700001028E605A6000F057FB0834204603B0E8
:10568000BDE8F08F00240C2320462B6003B0BDE85A
:10569000F08F40204FF400734FF03F0E4AE7234451
:1056A000E1685A68A66842F00102F16028468E60FF
:1056B0005A6000F039FB0834204603B0BDE8F08F93
:1056C000234428465A6842F001025A6000F02CFB3D
:1056D0000834204603B0BDE8F08FBC68636823F04F
:1056E0000308B04504D3A8EB06030F2B00F3858015
:1056F000DFF85891504BD9F800201B680132334431
:1057000004EB080A00F0558103F580530F3323F4AE
:105710007F6B2BF00F0B5946284600F0B1FC411C63
:10572000024600F0FC80824500F2F780434B196886
:105730005944196000F04D81D9F8000001301BBFB9
:10574000A2EB0A0A5144C9F80020196012F00701BF
:1057500000F01581C1F10800C1F580510244083103
:1057600002EB0B09C9F30B09A1EB090949462846CD
:105770000193009200F084FC431C9DE80C0000F0B3
:105780004381801A484440F001001968BA604944D6
:10579000BC425060196017D0B8F10F0F40F2FB8087
:1057A0006068A8F10C0222F0070204EB020E00F080
:1057B00001004FF0050C10430F2A6060CEF804C0C2
:1057C000CEF808C000F217811D4BBC681A689142E0
:1057D00088BF19601B4B1A689142626888BF1960C4
:1057E00022F003029642A2EB060301D80F2B04DC41
:1057F000284600F099FA002440E7A21943F001037B
:1058000046F0010666602846BA60536000F08CFAE4
:105810000834204603B0BDE8F08F142B71D9542B07
:1058200000F2A380330B03F16F0003F16E0EC3008F
:1058300080E600BFB8054020100B4120E00A41205F
:10584000080B41200C0B4120C0054020C00940201E
:105850005A0A042A5BD9142A00F2AE8002F15C01D4
:10586000C9005B3207EB010C7958ACF1080C8C4590
:1058700000F088804A6822F00302934273D289685C
:105880008C45F7D1DCF80C207B68E260C4F808C0D6
:105890009460CCF80C408FE6A11946F0010C42F060
:1058A0000106C4F804C0284679613961C1F80CE0EA
:1058B000C1F808E04E60E25000F036FA0834DDE648
:1058C0007B6879E608F1010818F0030F0CF1080C69
:1058D0007FF485AE2DE0DC68A34208BF02303FF4C0
:1058E0003EAEBBE619441C464A68DB6854F8086FB4
:1058F00042F001024A602846F3609E6000F014FA0C
:10590000BCE603F15C0003F15B0EC30012E69A09EA
:1059100002F13901C9003832A4E7BC4254D0BC6856
:10592000626822F003025DE759F80839994540F0B2
:10593000868010F0030F00F1FF30F5D17B6823EA79
:1059400004037B6064009C423FF6C7AE002C3FF42A
:10595000C4AE1C4240467FF43EAE64001C4200F1DF
:105960000400FAD037E68C468CE7B3F5AA7F15D849
:10597000F30B03F1780003F1770EC300DAE54FF47F
:105980008051EDE67B689210012101FA02F2134387
:105990007B60624679E70123536029E740F2545265
:1059A000934222D8B30C03F17D0003F17C0EC300B7
:1059B000C0E503F1100BAEE6542A29D81A0B02F108
:1059C0006F01C9006E324DE7204B196859441960C8
:1059D000B2E6CAF30B0000287FF4AEAE08EB0B036F
:1059E000BA6843F001035360EEE67F204FF47E7304
:1059F0004FF07E0E9EE504F1080128460093FFF764
:105A000059FA009B1968DFE601204FF00009BCE657
:105A1000B2F5AA7F05D8DA0B02F17801C900773216
:105A200020E740F254518A4205D89A0C02F17D01D8
:105A3000C9007C3216E74FF47E717E2212E77B6844
:105A400080E7F00806F1080300E600BFE00A412005
:105A500082B049B15AB16BB113780B601278101C47
:105A600018BF012002B0704701A9002AF3D11046E7
:105A700002B070476FF00100F4E700BF00000000C3
:105A800001F0FF01102A2BDB10F0070F08D010F8EF
:105A9000013B013A8B422DD010F0070F42B3F6D1F3
:105AA000F0B441EA012141EA014122F007047FF00C
:105AB00000070023F0E80256083C85EA010586EA63
:105AC000010685FA47F5A3FA87F586FA47F6A5FA9F
:105AD00087F68EB9EED1F0BC01F0FF0102F00702AB
